{
  "transactions": [
    {
      "hash": "0xa4b3f9eaa911a58b5d62fdd42e2ce8a218e6adc438635867b7e713220808d00b",
      "transactionType": "CALL",
      "contractName": null,
      "contractAddress": "0x98f6d466830fa38f3ac9615dc98662968b08e1cd",
      "function": "applyChainUpdates(uint64[],(uint64,bytes[],bytes,(bool,uint128,uint128),(bool,uint128,uint128))[])",
      "arguments": [
        "[]",
        "[(6898391096552792247, [0x0000000000000000000000000cb7d7829fb5765ce1b79e1c7967b8effb9e8343], 0x000000000000000000000000324da0eb4a81d8a9ea3a3f02a7b1512263911367, (false, 0, 0), (false, 0, 0))]"
      ],
      "transaction": {
        "from": "0xf1c71f5456aa91572034ca7c3286e90974c2c498",
        "to": "0x98f6d466830fa38f3ac9615dc98662968b08e1cd",
        "gas": "0x686c4",
        "value": "0x0",
        "input": "0xe8a1da17000000000000000000000000000000000000000000000000000000000000004000000000000000000000000000000000000000000000000000000000000000600000000000000000000000000000000000000000000000000000000000000000000000000000000000000000000000000000000000000000000000000000000100000000000000000000000000000000000000000000000000000000000000200000000000000000000000000000000000000000000000005fbc02272fbf20b7000000000000000000000000000000000000000000000000000000000000012000000000000000000000000000000000000000000000000000000000000001a00000000000000000000000000000000000000000000000000000000000000000000000000000000000000000000000000000000000000000000000000000000000000000000000000000000000000000000000000000000000000000000000000000000000000000000000000000000000000000000000000000000000000000000000000000000000000000000000000000000000000000000000000000000000000000000000000000000000000000000000000000000000000000000000000000000000000000000000000000000000000000000000000000000000000001000000000000000000000000000000000000000000000000000000000000002000000000000000000000000000000000000000000000000000000000000000200000000000000000000000000cb7d7829fb5765ce1b79e1c7967b8effb9e83430000000000000000000000000000000000000000000000000000000000000020000000000000000000000000324da0eb4a81d8a9ea3a3f02a7b1512263911367",
        "nonce": "0x5b",
        "chainId": "0xaa36a7"
      },
      "additionalContracts": [],
      "isFixedGasLimit": false
    }
  ],
  "receipts": [
    {
      "status": "0x1",
      "cumulativeGasUsed": "0x5f3ca4",
      "logs": [
        {
          "address": "0x98f6d466830fa38f3ac9615dc98662968b08e1cd",
          "topics": [
            "0x7d628c9a1796743d365ab521a8b2a4686e419b3269919dc9145ea2ce853b54ea",
            "0x0000000000000000000000000000000000000000000000005fbc02272fbf20b7"
          ],
          "data": "0x000000000000000000000000000000000000000000000000000000000000002000000000000000000000000000000000000000000000000000000000000000200000000000000000000000000cb7d7829fb5765ce1b79e1c7967b8effb9e8343",
          "blockHash": "0xdcfc37052fd722821507f7b9bb09ac85d056056693160e0ddcb28c1ebc35cad2",
          "blockNumber": "0x8bc7b9",
          "blockTimestamp": "0x68bee6f4",
          "transactionHash": "0xa4b3f9eaa911a58b5d62fdd42e2ce8a218e6adc438635867b7e713220808d00b",
          "transactionIndex": "0x39",
          "logIndex": "0x3d",
          "removed": false
        },
        {
          "address": "0x98f6d466830fa38f3ac9615dc98662968b08e1cd",
          "topics": [
            "0x8d340f17e19058004c20453540862a9c62778504476f6756755cb33bcd6c38c2"
          ],
          "data": "0x0000000000000000000000000000000000000000000000005fbc02272fbf20b700000000000000000000000000000000000000000000000000000000000001000000000000000000000000000000000000000000000000000000000000000000000000000000000000000000000000000000000000000000000000000000000000000000000000000000000000000000000000000000000000000000000000000000000000000000000000000000000000000000000000000000000000000000000000000000000000000000000000000000000000000000000000000000000000000000000000000000000000000000000000000000000000000000000000000000000000000000000000000000000000000000000000000000000000000020000000000000000000000000324da0eb4a81d8a9ea3a3f02a7b1512263911367",
          "blockHash": "0xdcfc37052fd722821507f7b9bb09ac85d056056693160e0ddcb28c1ebc35cad2",
          "blockNumber": "0x8bc7b9",
          "blockTimestamp": "0x68bee6f4",
          "transactionHash": "0xa4b3f9eaa911a58b5d62fdd42e2ce8a218e6adc438635867b7e713220808d00b",
          "transactionIndex": "0x39",
          "logIndex": "0x3e",
          "removed": false
        }
      ],
      "logsBloom": "0x00000000000000400000000000000000000000000000000000000000000000000000000000000000000000000000000000000000000000000004000000000004000000000000000000000000048000000000000000000000000000000000000000000400000000000000000000000040000000000000000000000000000000400000000000000000000000000000000000000000000000000000000000000000000000000000008000000000000000000000000000000000000000000000000000000000000000000000000000000000000000000000000000000000000000000000000000000000000000000000000000000001008000000100000000000000",
      "type": "0x2",
      "transactionHash": "0xa4b3f9eaa911a58b5d62fdd42e2ce8a218e6adc438635867b7e713220808d00b",
      "transactionIndex": "0x39",
      "blockHash": "0xdcfc37052fd722821507f7b9bb09ac85d056056693160e0ddcb28c1ebc35cad2",
      "blockNumber": "0x8bc7b9",
      "gasUsed": "0x4b99c",
      "effectiveGasPrice": "0x2a6e8d",
      "from": "0xf1c71f5456aa91572034ca7c3286e90974c2c498",
      "to": "0x98f6d466830fa38f3ac9615dc98662968b08e1cd",
      "contractAddress": null
    }
  ],
  "libraries": [],
  "pending": [],
  "returns": {},
  "timestamp": 1757341429,
  "chain": 11155111,
  "commit": null
}