{
  "transactions": [
    {
      "hash": "0x5c67522583fc86f1a426a636d0cabc5d6b8f394ba2a0021aef970f7d9414166b",
      "transactionType": "CALL",
      "contractName": null,
      "contractAddress": "0x317391d629dc5500fc9366752024e74b7a2fc871",
      "function": "applyChainUpdates(uint64[],(uint64,bytes[],bytes,(bool,uint128,uint128),(bool,uint128,uint128))[])",
      "arguments": [
        "[]",
        "[(6898391096552792247, [0x00000000000000000000000009fdbd6661cece227c1b5c222150bbd942a7ba04], 0x0000000000000000000000005dcc1f08ab41eb72d158e92c7d13c0b380936ef4, (false, 0, 0), (false, 0, 0))]"
      ],
      "transaction": {
        "from": "0xf1c71f5456aa91572034ca7c3286e90974c2c498",
        "to": "0x317391d629dc5500fc9366752024e74b7a2fc871",
        "gas": "0x686c4",
        "value": "0x0",
        "input": "0xe8a1da17000000000000000000000000000000000000000000000000000000000000004000000000000000000000000000000000000000000000000000000000000000600000000000000000000000000000000000000000000000000000000000000000000000000000000000000000000000000000000000000000000000000000000100000000000000000000000000000000000000000000000000000000000000200000000000000000000000000000000000000000000000005fbc02272fbf20b7000000000000000000000000000000000000000000000000000000000000012000000000000000000000000000000000000000000000000000000000000001a000000000000000000000000000000000000000000000000000000000000000000000000000000000000000000000000000000000000000000000000000000000000000000000000000000000000000000000000000000000000000000000000000000000000000000000000000000000000000000000000000000000000000000000000000000000000000000000000000000000000000000000000000000000000000000000000000000000000000000000000000000000000000000000000000000000000000000000000000000000000000000000000000000000000000010000000000000000000000000000000000000000000000000000000000000020000000000000000000000000000000000000000000000000000000000000002000000000000000000000000009fdbd6661cece227c1b5c222150bbd942a7ba0400000000000000000000000000000000000000000000000000000000000000200000000000000000000000005dcc1f08ab41eb72d158e92c7d13c0b380936ef4",
        "nonce": "0x73",
        "chainId": "0xaa36a7"
      },
      "additionalContracts": [],
      "isFixedGasLimit": false
    }
  ],
  "receipts": [
    {
      "status": "0x1",
      "cumulativeGasUsed": "0x66fdbb",
      "logs": [
        {
          "address": "0x317391d629dc5500fc9366752024e74b7a2fc871",
          "topics": [
            "0x7d628c9a1796743d365ab521a8b2a4686e419b3269919dc9145ea2ce853b54ea",
            "0x0000000000000000000000000000000000000000000000005fbc02272fbf20b7"
          ],
          "data": "0x0000000000000000000000000000000000000000000000000000000000000020000000000000000000000000000000000000000000000000000000000000002000000000000000000000000009fdbd6661cece227c1b5c222150bbd942a7ba04",
          "blockHash": "0xf5526800cfb2f253aecab4fa7110c6721c80c905a814e70a8610064049cf6119",
          "blockNumber": "0x8bc944",
          "blockTimestamp": "0x68befa08",
          "transactionHash": "0x5c67522583fc86f1a426a636d0cabc5d6b8f394ba2a0021aef970f7d9414166b",
          "transactionIndex": "0x45",
          "logIndex": "0x61",
          "removed": false
        },
        {
          "address": "0x317391d629dc5500fc9366752024e74b7a2fc871",
          "topics": [
            "0x8d340f17e19058004c20453540862a9c62778504476f6756755cb33bcd6c38c2"
          ],
          "data": "0x0000000000000000000000000000000000000000000000005fbc02272fbf20b7000000000000000000000000000000000000000000000000000000000000010000000000000000000000000000000000000000000000000000000000000000000000000000000000000000000000000000000000000000000000000000000000000000000000000000000000000000000000000000000000000000000000000000000000000000000000000000000000000000000000000000000000000000000000000000000000000000000000000000000000000000000000000000000000000000000000000000000000000000000000000000000000000000000000000000000000000000000000000000000000000000000000000000000000000000200000000000000000000000005dcc1f08ab41eb72d158e92c7d13c0b380936ef4",
          "blockHash": "0xf5526800cfb2f253aecab4fa7110c6721c80c905a814e70a8610064049cf6119",
          "blockNumber": "0x8bc944",
          "blockTimestamp": "0x68befa08",
          "transactionHash": "0x5c67522583fc86f1a426a636d0cabc5d6b8f394ba2a0021aef970f7d9414166b",
          "transactionIndex": "0x45",
          "logIndex": "0x62",
          "removed": false
        }
      ],
      "logsBloom": "0x00000000000000400000000000000000000000000000000000000000000000000000000000000000000000000000000000000000000000000004000000000004000000000000000000000000040000000000000000000000000000000000000000000000000000000000000000000040000000000000000000000000000000400000000000000000000000000000000000000000000000000000000000000000000000000000008000000000000000000000000000000000020000000000000000000000000000000000000000000000000000002000000000000000000000000000000004000000000000000000000000000000008000000100000000000000",
      "type": "0x2",
      "transactionHash": "0x5c67522583fc86f1a426a636d0cabc5d6b8f394ba2a0021aef970f7d9414166b",
      "transactionIndex": "0x45",
      "blockHash": "0xf5526800cfb2f253aecab4fa7110c6721c80c905a814e70a8610064049cf6119",
      "blockNumber": "0x8bc944",
      "gasUsed": "0x4b99c",
      "effectiveGasPrice": "0x51b42e",
      "from": "0xf1c71f5456aa91572034ca7c3286e90974c2c498",
      "to": "0x317391d629dc5500fc9366752024e74b7a2fc871",
      "contractAddress": null
    }
  ],
  "libraries": [],
  "pending": [],
  "returns": {},
  "timestamp": 1757346313,
  "chain": 11155111,
  "commit": null
}