{
  "transactions": [
    {
      "hash": "0x635f91f40982989520d6ba9595c426483a8ff77cbc1b24aa5b082dcef31d2797",
      "transactionType": "CALL",
      "contractName": null,
      "contractAddress": "0x96349ec779ce72eeb0a686b22826ee233f51628c",
      "function": "applyChainUpdates(uint64[],(uint64,bytes[],bytes,(bool,uint128,uint128),(bool,uint128,uint128))[])",
      "arguments": [
        "[]",
        "[(6898391096552792247, [0x000000000000000000000000360289cf825e0eec8c62e6d0d89d620959b1abc2], 0x00000000000000000000000055ec6287b22ff3a90a27fbc14276d85883f28161, (false, 0, 0), (false, 0, 0))]"
      ],
      "transaction": {
        "from": "0xf1c71f5456aa91572034ca7c3286e90974c2c498",
        "to": "0x96349ec779ce72eeb0a686b22826ee233f51628c",
        "gas": "0x686c4",
        "value": "0x0",
        "input": "0xe8a1da17000000000000000000000000000000000000000000000000000000000000004000000000000000000000000000000000000000000000000000000000000000600000000000000000000000000000000000000000000000000000000000000000000000000000000000000000000000000000000000000000000000000000000100000000000000000000000000000000000000000000000000000000000000200000000000000000000000000000000000000000000000005fbc02272fbf20b7000000000000000000000000000000000000000000000000000000000000012000000000000000000000000000000000000000000000000000000000000001a0000000000000000000000000000000000000000000000000000000000000000000000000000000000000000000000000000000000000000000000000000000000000000000000000000000000000000000000000000000000000000000000000000000000000000000000000000000000000000000000000000000000000000000000000000000000000000000000000000000000000000000000000000000000000000000000000000000000000000000000000000000000000000000000000000000000000000000000000000000000000000000000000000000000000000100000000000000000000000000000000000000000000000000000000000000200000000000000000000000000000000000000000000000000000000000000020000000000000000000000000360289cf825e0eec8c62e6d0d89d620959b1abc2000000000000000000000000000000000000000000000000000000000000002000000000000000000000000055ec6287b22ff3a90a27fbc14276d85883f28161",
        "nonce": "0xc1",
        "chainId": "0xaa36a7"
      },
      "additionalContracts": [],
      "isFixedGasLimit": false
    }
  ],
  "receipts": [
    {
      "status": "0x1",
      "cumulativeGasUsed": "0x74df39",
      "logs": [
        {
          "address": "0x96349ec779ce72eeb0a686b22826ee233f51628c",
          "topics": [
            "0x7d628c9a1796743d365ab521a8b2a4686e419b3269919dc9145ea2ce853b54ea",
            "0x0000000000000000000000000000000000000000000000005fbc02272fbf20b7"
          ],
          "data": "0x00000000000000000000000000000000000000000000000000000000000000200000000000000000000000000000000000000000000000000000000000000020000000000000000000000000360289cf825e0eec8c62e6d0d89d620959b1abc2",
          "blockHash": "0xb6e3410289783956d61b4ab60138bf2ed87942bf2f959a7831f3851d794995c3",
          "blockNumber": "0x91f7f4",
          "blockTimestamp": "0x690b4f18",
          "transactionHash": "0x635f91f40982989520d6ba9595c426483a8ff77cbc1b24aa5b082dcef31d2797",
          "transactionIndex": "0x49",
          "logIndex": "0x66",
          "removed": false
        },
        {
          "address": "0x96349ec779ce72eeb0a686b22826ee233f51628c",
          "topics": [
            "0x8d340f17e19058004c20453540862a9c62778504476f6756755cb33bcd6c38c2"
          ],
          "data": "0x0000000000000000000000000000000000000000000000005fbc02272fbf20b70000000000000000000000000000000000000000000000000000000000000100000000000000000000000000000000000000000000000000000000000000000000000000000000000000000000000000000000000000000000000000000000000000000000000000000000000000000000000000000000000000000000000000000000000000000000000000000000000000000000000000000000000000000000000000000000000000000000000000000000000000000000000000000000000000000000000000000000000000000000000000000000000000000000000000000000000000000000000000000000000000000000000000000000000000002000000000000000000000000055ec6287b22ff3a90a27fbc14276d85883f28161",
          "blockHash": "0xb6e3410289783956d61b4ab60138bf2ed87942bf2f959a7831f3851d794995c3",
          "blockNumber": "0x91f7f4",
          "blockTimestamp": "0x690b4f18",
          "transactionHash": "0x635f91f40982989520d6ba9595c426483a8ff77cbc1b24aa5b082dcef31d2797",
          "transactionIndex": "0x49",
          "logIndex": "0x67",
          "removed": false
        }
      ],
      "logsBloom": "0x00000000000000400000000000000000000000000000002000000000000000000000000000000000000000000000000000000000000000000004000000000004000020000000000000000000040000000000000000000000000000000000000000000000000000000000000000000040000000000000000000000000000000400000000000000001000000000000000000000000000000000000000000000000000000000000008000000000000000000000000000000000000000000000000000000000000000000000000000000000000000000000000000000000000000000000000000000000000000000000000000000000008000000100000000000000",
      "type": "0x2",
      "transactionHash": "0x635f91f40982989520d6ba9595c426483a8ff77cbc1b24aa5b082dcef31d2797",
      "transactionIndex": "0x49",
      "blockHash": "0xb6e3410289783956d61b4ab60138bf2ed87942bf2f959a7831f3851d794995c3",
      "blockNumber": "0x91f7f4",
      "gasUsed": "0x4b99c",
      "effectiveGasPrice": "0xf4241",
      "from": "0xf1c71f5456aa91572034ca7c3286e90974c2c498",
      "to": "0x96349ec779ce72eeb0a686b22826ee233f51628c",
      "contractAddress": null
    }
  ],
  "libraries": [],
  "pending": [],
  "returns": {},
  "timestamp": 1762348825,
  "chain": 11155111,
  "commit": "18ffa8d"
}