{
  "transactions": [
    {
      "hash": "0x56e3d965ba9d78eea0fb9cba2aa6d11037e7519fda5a6563d129095b611de224",
      "transactionType": "CALL",
      "contractName": null,
      "contractAddress": "0x1b15c032d2c77402d5f6c241f805ae717d524aa5",
      "function": "applyChainUpdates(uint64[],(uint64,bytes[],bytes,(bool,uint128,uint128),(bool,uint128,uint128))[])",
      "arguments": [
        "[]",
        "[(6898391096552792247, [0x000000000000000000000000e26554f1d7bd4ae911fc075d8e9d98e287c9a4ff], 0x00000000000000000000000081dbb03752470dd778e2d860da2d90df2c67656a, (false, 0, 0), (false, 0, 0))]"
      ],
      "transaction": {
        "from": "0xf1c71f5456aa91572034ca7c3286e90974c2c498",
        "to": "0x1b15c032d2c77402d5f6c241f805ae717d524aa5",
        "gas": "0x686c4",
        "value": "0x0",
        "input": "0xe8a1da17000000000000000000000000000000000000000000000000000000000000004000000000000000000000000000000000000000000000000000000000000000600000000000000000000000000000000000000000000000000000000000000000000000000000000000000000000000000000000000000000000000000000000100000000000000000000000000000000000000000000000000000000000000200000000000000000000000000000000000000000000000005fbc02272fbf20b7000000000000000000000000000000000000000000000000000000000000012000000000000000000000000000000000000000000000000000000000000001a0000000000000000000000000000000000000000000000000000000000000000000000000000000000000000000000000000000000000000000000000000000000000000000000000000000000000000000000000000000000000000000000000000000000000000000000000000000000000000000000000000000000000000000000000000000000000000000000000000000000000000000000000000000000000000000000000000000000000000000000000000000000000000000000000000000000000000000000000000000000000000000000000000000000000000100000000000000000000000000000000000000000000000000000000000000200000000000000000000000000000000000000000000000000000000000000020000000000000000000000000e26554f1d7bd4ae911fc075d8e9d98e287c9a4ff000000000000000000000000000000000000000000000000000000000000002000000000000000000000000081dbb03752470dd778e2d860da2d90df2c67656a",
        "nonce": "0x45",
        "chainId": "0xaa36a7"
      },
      "additionalContracts": [],
      "isFixedGasLimit": false
    }
  ],
  "receipts": [
    {
      "status": "0x1",
      "cumulativeGasUsed": "0x12a74a7",
      "logs": [
        {
          "address": "0x1b15c032d2c77402d5f6c241f805ae717d524aa5",
          "topics": [
            "0x7d628c9a1796743d365ab521a8b2a4686e419b3269919dc9145ea2ce853b54ea",
            "0x0000000000000000000000000000000000000000000000005fbc02272fbf20b7"
          ],
          "data": "0x00000000000000000000000000000000000000000000000000000000000000200000000000000000000000000000000000000000000000000000000000000020000000000000000000000000e26554f1d7bd4ae911fc075d8e9d98e287c9a4ff",
          "blockHash": "0x7b48068dd75bf39bbdce583506f779e4925513f78f2e63e6df8679d09aca31c1",
          "blockNumber": "0x8bc687",
          "blockTimestamp": "0x68bed884",
          "transactionHash": "0x56e3d965ba9d78eea0fb9cba2aa6d11037e7519fda5a6563d129095b611de224",
          "transactionIndex": "0x9c",
          "logIndex": "0xe5",
          "removed": false
        },
        {
          "address": "0x1b15c032d2c77402d5f6c241f805ae717d524aa5",
          "topics": [
            "0x8d340f17e19058004c20453540862a9c62778504476f6756755cb33bcd6c38c2"
          ],
          "data": "0x0000000000000000000000000000000000000000000000005fbc02272fbf20b70000000000000000000000000000000000000000000000000000000000000100000000000000000000000000000000000000000000000000000000000000000000000000000000000000000000000000000000000000000000000000000000000000000000000000000000000000000000000000000000000000000000000000000000000000000000000000000000000000000000000000000000000000000000000000000000000000000000000000000000000000000000000000000000000000000000000000000000000000000000000000000000000000000000000000000000000000000000000000000000000000000000000000000000000000002000000000000000000000000081dbb03752470dd778e2d860da2d90df2c67656a",
          "blockHash": "0x7b48068dd75bf39bbdce583506f779e4925513f78f2e63e6df8679d09aca31c1",
          "blockNumber": "0x8bc687",
          "blockTimestamp": "0x68bed884",
          "transactionHash": "0x56e3d965ba9d78eea0fb9cba2aa6d11037e7519fda5a6563d129095b611de224",
          "transactionIndex": "0x9c",
          "logIndex": "0xe6",
          "removed": false
        }
      ],
      "logsBloom": "0x00000000000000400000000000000000000000000000000000000000000000000000000000000000000000000000000000000000000000000004000000080004000000000000000000000000040001000000000000000000000000000000000000080000000000000000000000000040000000000000000000000000000000400000000000000000000000000000000000000000000000000000000000000000000000000000008000000000000000000000000000000000000000000000000000000000000000000000000000000000000000000000000000000000000000000000000000000000000000000000000000000000008000000100000000000000",
      "type": "0x2",
      "transactionHash": "0x56e3d965ba9d78eea0fb9cba2aa6d11037e7519fda5a6563d129095b611de224",
      "transactionIndex": "0x9c",
      "blockHash": "0x7b48068dd75bf39bbdce583506f779e4925513f78f2e63e6df8679d09aca31c1",
      "blockNumber": "0x8bc687",
      "gasUsed": "0x4b99c",
      "effectiveGasPrice": "0x2ed379",
      "from": "0xf1c71f5456aa91572034ca7c3286e90974c2c498",
      "to": "0x1b15c032d2c77402d5f6c241f805ae717d524aa5",
      "contractAddress": null
    }
  ],
  "libraries": [],
  "pending": [],
  "returns": {},
  "timestamp": 1757337732,
  "chain": 11155111,
  "commit": null
}