{
  "transactions": [
    {
      "hash": "0x9926a2d7baae9a2de48fce8d0b30d1580af7f37689675c5c4eaba3ae77708b3c",
      "transactionType": "CALL",
      "contractName": null,
      "contractAddress": "0x7ff06c300e12dc21fb8fc7b6a486f2e6f8f53897",
      "function": "applyChainUpdates(uint64[],(uint64,bytes[],bytes,(bool,uint128,uint128),(bool,uint128,uint128))[])",
      "arguments": [
        "[]",
        "[(6898391096552792247, [0x000000000000000000000000dd81d93f25ba3501716dac9cb4c5aa2fe15ad577], 0x000000000000000000000000960f672fab449ac205c92e5b78d412cc6df98ee3, (false, 0, 0), (false, 0, 0))]"
      ],
      "transaction": {
        "from": "0xf1c71f5456aa91572034ca7c3286e90974c2c498",
        "to": "0x7ff06c300e12dc21fb8fc7b6a486f2e6f8f53897",
        "gas": "0x686c4",
        "value": "0x0",
        "input": "0xe8a1da17000000000000000000000000000000000000000000000000000000000000004000000000000000000000000000000000000000000000000000000000000000600000000000000000000000000000000000000000000000000000000000000000000000000000000000000000000000000000000000000000000000000000000100000000000000000000000000000000000000000000000000000000000000200000000000000000000000000000000000000000000000005fbc02272fbf20b7000000000000000000000000000000000000000000000000000000000000012000000000000000000000000000000000000000000000000000000000000001a0000000000000000000000000000000000000000000000000000000000000000000000000000000000000000000000000000000000000000000000000000000000000000000000000000000000000000000000000000000000000000000000000000000000000000000000000000000000000000000000000000000000000000000000000000000000000000000000000000000000000000000000000000000000000000000000000000000000000000000000000000000000000000000000000000000000000000000000000000000000000000000000000000000000000000100000000000000000000000000000000000000000000000000000000000000200000000000000000000000000000000000000000000000000000000000000020000000000000000000000000dd81d93f25ba3501716dac9cb4c5aa2fe15ad5770000000000000000000000000000000000000000000000000000000000000020000000000000000000000000960f672fab449ac205c92e5b78d412cc6df98ee3",
        "nonce": "0xb7",
        "chainId": "0xaa36a7"
      },
      "additionalContracts": [],
      "isFixedGasLimit": false
    }
  ],
  "receipts": [
    {
      "status": "0x1",
      "cumulativeGasUsed": "0xcee907",
      "logs": [
        {
          "address": "0x7ff06c300e12dc21fb8fc7b6a486f2e6f8f53897",
          "topics": [
            "0x7d628c9a1796743d365ab521a8b2a4686e419b3269919dc9145ea2ce853b54ea",
            "0x0000000000000000000000000000000000000000000000005fbc02272fbf20b7"
          ],
          "data": "0x00000000000000000000000000000000000000000000000000000000000000200000000000000000000000000000000000000000000000000000000000000020000000000000000000000000dd81d93f25ba3501716dac9cb4c5aa2fe15ad577",
          "blockHash": "0xc3554934ae6e194d97809e941b650435291ff2be2be88b57f525a1de6dcb9c0c",
          "blockNumber": "0x91f76c",
          "blockTimestamp": "0x690b48b8",
          "transactionHash": "0x9926a2d7baae9a2de48fce8d0b30d1580af7f37689675c5c4eaba3ae77708b3c",
          "transactionIndex": "0x6b",
          "logIndex": "0x82",
          "removed": false
        },
        {
          "address": "0x7ff06c300e12dc21fb8fc7b6a486f2e6f8f53897",
          "topics": [
            "0x8d340f17e19058004c20453540862a9c62778504476f6756755cb33bcd6c38c2"
          ],
          "data": "0x0000000000000000000000000000000000000000000000005fbc02272fbf20b700000000000000000000000000000000000000000000000000000000000001000000000000000000000000000000000000000000000000000000000000000000000000000000000000000000000000000000000000000000000000000000000000000000000000000000000000000000000000000000000000000000000000000000000000000000000000000000000000000000000000000000000000000000000000000000000000000000000000000000000000000000000000000000000000000000000000000000000000000000000000000000000000000000000000000000000000000000000000000000000000000000000000000000000000000020000000000000000000000000960f672fab449ac205c92e5b78d412cc6df98ee3",
          "blockHash": "0xc3554934ae6e194d97809e941b650435291ff2be2be88b57f525a1de6dcb9c0c",
          "blockNumber": "0x91f76c",
          "blockTimestamp": "0x690b48b8",
          "transactionHash": "0x9926a2d7baae9a2de48fce8d0b30d1580af7f37689675c5c4eaba3ae77708b3c",
          "transactionIndex": "0x6b",
          "logIndex": "0x83",
          "removed": false
        }
      ],
      "logsBloom": "0x00000000000000400000000000000000000000000000000000000000000000000000000000000000000000000000000000000000000000000004000000000004000000000000000000000000040000000000000000000000000000000000000000000000000000000000080000000040000000000000000000000000000000400000000020000000000000000000000000000000000000000000000000000000000000000000008000000000000000000000000000000000000000000000000000000000000000000000000000000000000000000000000000000000000000000000000400000000000000000000000000000000008000000100000000000000",
      "type": "0x2",
      "transactionHash": "0x9926a2d7baae9a2de48fce8d0b30d1580af7f37689675c5c4eaba3ae77708b3c",
      "transactionIndex": "0x6b",
      "blockHash": "0xc3554934ae6e194d97809e941b650435291ff2be2be88b57f525a1de6dcb9c0c",
      "blockNumber": "0x91f76c",
      "gasUsed": "0x4b99c",
      "effectiveGasPrice": "0xf4244",
      "from": "0xf1c71f5456aa91572034ca7c3286e90974c2c498",
      "to": "0x7ff06c300e12dc21fb8fc7b6a486f2e6f8f53897",
      "contractAddress": null
    }
  ],
  "libraries": [],
  "pending": [],
  "returns": {},
  "timestamp": 1762347193,
  "chain": 11155111,
  "commit": "18ffa8d"
}