{
  "transactions": [
    {
      "hash": "0xc35129e1e5885466ed1a950787398419247a40bedbf7fd1f767c7ee52f907b64",
      "transactionType": "CALL",
      "contractName": null,
      "contractAddress": "0x7fe50e959c31bf23a8908a2e87f8623848da36d1",
      "function": "applyChainUpdates(uint64[],(uint64,bytes[],bytes,(bool,uint128,uint128),(bool,uint128,uint128))[])",
      "arguments": [
        "[]",
        "[(6898391096552792247, [0x00000000000000000000000070b8c1640fb43095d2ed0b9afe7f0383d8b080b3], 0x000000000000000000000000dcc1322e0e07abb808c653372691ab7b2c1f8835, (false, 0, 0), (false, 0, 0))]"
      ],
      "transaction": {
        "from": "0xf1c71f5456aa91572034ca7c3286e90974c2c498",
        "to": "0x7fe50e959c31bf23a8908a2e87f8623848da36d1",
        "gas": "0x686c4",
        "value": "0x0",
        "input": "0xe8a1da17000000000000000000000000000000000000000000000000000000000000004000000000000000000000000000000000000000000000000000000000000000600000000000000000000000000000000000000000000000000000000000000000000000000000000000000000000000000000000000000000000000000000000100000000000000000000000000000000000000000000000000000000000000200000000000000000000000000000000000000000000000005fbc02272fbf20b7000000000000000000000000000000000000000000000000000000000000012000000000000000000000000000000000000000000000000000000000000001a000000000000000000000000000000000000000000000000000000000000000000000000000000000000000000000000000000000000000000000000000000000000000000000000000000000000000000000000000000000000000000000000000000000000000000000000000000000000000000000000000000000000000000000000000000000000000000000000000000000000000000000000000000000000000000000000000000000000000000000000000000000000000000000000000000000000000000000000000000000000000000000000000000000000000010000000000000000000000000000000000000000000000000000000000000020000000000000000000000000000000000000000000000000000000000000002000000000000000000000000070b8c1640fb43095d2ed0b9afe7f0383d8b080b30000000000000000000000000000000000000000000000000000000000000020000000000000000000000000dcc1322e0e07abb808c653372691ab7b2c1f8835",
        "nonce": "0xaf",
        "chainId": "0xaa36a7"
      },
      "additionalContracts": [],
      "isFixedGasLimit": false
    }
  ],
  "receipts": [
    {
      "status": "0x1",
      "cumulativeGasUsed": "0xc7b1bf",
      "logs": [
        {
          "address": "0x7fe50e959c31bf23a8908a2e87f8623848da36d1",
          "topics": [
            "0x7d628c9a1796743d365ab521a8b2a4686e419b3269919dc9145ea2ce853b54ea",
            "0x0000000000000000000000000000000000000000000000005fbc02272fbf20b7"
          ],
          "data": "0x0000000000000000000000000000000000000000000000000000000000000020000000000000000000000000000000000000000000000000000000000000002000000000000000000000000070b8c1640fb43095d2ed0b9afe7f0383d8b080b3",
          "blockHash": "0x36763190f9644f33a948347da1271fee4c085475ce6f7b24a9040e35c0268a25",
          "blockNumber": "0x91f6c2",
          "blockTimestamp": "0x690b40c0",
          "transactionHash": "0xc35129e1e5885466ed1a950787398419247a40bedbf7fd1f767c7ee52f907b64",
          "transactionIndex": "0x57",
          "logIndex": "0x51",
          "removed": false
        },
        {
          "address": "0x7fe50e959c31bf23a8908a2e87f8623848da36d1",
          "topics": [
            "0x8d340f17e19058004c20453540862a9c62778504476f6756755cb33bcd6c38c2"
          ],
          "data": "0x0000000000000000000000000000000000000000000000005fbc02272fbf20b700000000000000000000000000000000000000000000000000000000000001000000000000000000000000000000000000000000000000000000000000000000000000000000000000000000000000000000000000000000000000000000000000000000000000000000000000000000000000000000000000000000000000000000000000000000000000000000000000000000000000000000000000000000000000000000000000000000000000000000000000000000000000000000000000000000000000000000000000000000000000000000000000000000000000000000000000000000000000000000000000000000000000000000000000000020000000000000000000000000dcc1322e0e07abb808c653372691ab7b2c1f8835",
          "blockHash": "0x36763190f9644f33a948347da1271fee4c085475ce6f7b24a9040e35c0268a25",
          "blockNumber": "0x91f6c2",
          "blockTimestamp": "0x690b40c0",
          "transactionHash": "0xc35129e1e5885466ed1a950787398419247a40bedbf7fd1f767c7ee52f907b64",
          "transactionIndex": "0x57",
          "logIndex": "0x52",
          "removed": false
        }
      ],
      "logsBloom": "0x00000000000000400000000000000000000000000000000000000000000000000000000000000000000000000000000000000000000000000004000000000004000000000000080000000000040000000000000000000000000000000000000000000000000000000000080000000040000000000000000000000000000010400000000000000000000000000000000000000000000000000000000000000000000000000000008000000000000000000000000000000000000000000000000000000000000000000000000000000000000000000000000000000000000000000000000000000000000000000000000000000000008000000100000000000000",
      "type": "0x2",
      "transactionHash": "0xc35129e1e5885466ed1a950787398419247a40bedbf7fd1f767c7ee52f907b64",
      "transactionIndex": "0x57",
      "blockHash": "0x36763190f9644f33a948347da1271fee4c085475ce6f7b24a9040e35c0268a25",
      "blockNumber": "0x91f6c2",
      "gasUsed": "0x4b99c",
      "effectiveGasPrice": "0xf423e",
      "from": "0xf1c71f5456aa91572034ca7c3286e90974c2c498",
      "to": "0x7fe50e959c31bf23a8908a2e87f8623848da36d1",
      "contractAddress": null
    }
  ],
  "libraries": [],
  "pending": [],
  "returns": {},
  "timestamp": 1762345153,
  "chain": 11155111,
  "commit": "18ffa8d"
}