{
  "transactions": [
    {
      "hash": "0xb79dc1df92b86bc81e1bdb0b16ba9cb4caf73183cbc6484ab17a02972c18a212",
      "transactionType": "CALL",
      "contractName": null,
      "contractAddress": "0xaa8e6e6b2ba9282a6718294207700fcad1f2c46e",
      "function": "applyChainUpdates(uint64[],(uint64,bytes[],bytes,(bool,uint128,uint128),(bool,uint128,uint128))[])",
      "arguments": [
        "[]",
        "[(6898391096552792247, [0x000000000000000000000000391819b0cccb3a81b63c21be7bbcf76b7074acf6], 0x000000000000000000000000a49aabb5a011c68829f4f7ee4402da8fac319d79, (false, 0, 0), (false, 0, 0))]"
      ],
      "transaction": {
        "from": "0xf1c71f5456aa91572034ca7c3286e90974c2c498",
        "to": "0xaa8e6e6b2ba9282a6718294207700fcad1f2c46e",
        "gas": "0x686c4",
        "value": "0x0",
        "input": "0xe8a1da17000000000000000000000000000000000000000000000000000000000000004000000000000000000000000000000000000000000000000000000000000000600000000000000000000000000000000000000000000000000000000000000000000000000000000000000000000000000000000000000000000000000000000100000000000000000000000000000000000000000000000000000000000000200000000000000000000000000000000000000000000000005fbc02272fbf20b7000000000000000000000000000000000000000000000000000000000000012000000000000000000000000000000000000000000000000000000000000001a0000000000000000000000000000000000000000000000000000000000000000000000000000000000000000000000000000000000000000000000000000000000000000000000000000000000000000000000000000000000000000000000000000000000000000000000000000000000000000000000000000000000000000000000000000000000000000000000000000000000000000000000000000000000000000000000000000000000000000000000000000000000000000000000000000000000000000000000000000000000000000000000000000000000000000100000000000000000000000000000000000000000000000000000000000000200000000000000000000000000000000000000000000000000000000000000020000000000000000000000000391819b0cccb3a81b63c21be7bbcf76b7074acf60000000000000000000000000000000000000000000000000000000000000020000000000000000000000000a49aabb5a011c68829f4f7ee4402da8fac319d79",
        "nonce": "0x4f",
        "chainId": "0xaa36a7"
      },
      "additionalContracts": [],
      "isFixedGasLimit": false
    }
  ],
  "receipts": [
    {
      "status": "0x1",
      "cumulativeGasUsed": "0xfbd5a1",
      "logs": [
        {
          "address": "0xaa8e6e6b2ba9282a6718294207700fcad1f2c46e",
          "topics": [
            "0x7d628c9a1796743d365ab521a8b2a4686e419b3269919dc9145ea2ce853b54ea",
            "0x0000000000000000000000000000000000000000000000005fbc02272fbf20b7"
          ],
          "data": "0x00000000000000000000000000000000000000000000000000000000000000200000000000000000000000000000000000000000000000000000000000000020000000000000000000000000391819b0cccb3a81b63c21be7bbcf76b7074acf6",
          "blockHash": "0x31874664bfe29e31b283a5e121bc07cf10f366f4eb8f66dc91948d06df5a4b5d",
          "blockNumber": "0x8bc6df",
          "blockTimestamp": "0x68bedcb0",
          "transactionHash": "0xb79dc1df92b86bc81e1bdb0b16ba9cb4caf73183cbc6484ab17a02972c18a212",
          "transactionIndex": "0x6b",
          "logIndex": "0xea",
          "removed": false
        },
        {
          "address": "0xaa8e6e6b2ba9282a6718294207700fcad1f2c46e",
          "topics": [
            "0x8d340f17e19058004c20453540862a9c62778504476f6756755cb33bcd6c38c2"
          ],
          "data": "0x0000000000000000000000000000000000000000000000005fbc02272fbf20b700000000000000000000000000000000000000000000000000000000000001000000000000000000000000000000000000000000000000000000000000000000000000000000000000000000000000000000000000000000000000000000000000000000000000000000000000000000000000000000000000000000000000000000000000000000000000000000000000000000000000000000000000000000000000000000000000000000000000000000000000000000000000000000000000000000000000000000000000000000000000000000000000000000000000000000000000000000000000000000000000000000000000000000000000000020000000000000000000000000a49aabb5a011c68829f4f7ee4402da8fac319d79",
          "blockHash": "0x31874664bfe29e31b283a5e121bc07cf10f366f4eb8f66dc91948d06df5a4b5d",
          "blockNumber": "0x8bc6df",
          "blockTimestamp": "0x68bedcb0",
          "transactionHash": "0xb79dc1df92b86bc81e1bdb0b16ba9cb4caf73183cbc6484ab17a02972c18a212",
          "transactionIndex": "0x6b",
          "logIndex": "0xeb",
          "removed": false
        }
      ],
      "logsBloom": "0x00000000000000400000000000000000000000000000000000000000000000000000000000000000000000000000000000000000000000000004000000000004000000000000000000000000040000000000000000000000000000000000000000000000000000000000000000000040000000000000000000000000000000400000000000000000000000000000000000000000000000000000000000000000000000000000008000000000000000000000000000000000000000000010000000000000000000000000000000000000000000000000000000000000000000000000000000000000000000000000000040000000008000000100000010000000",
      "type": "0x2",
      "transactionHash": "0xb79dc1df92b86bc81e1bdb0b16ba9cb4caf73183cbc6484ab17a02972c18a212",
      "transactionIndex": "0x6b",
      "blockHash": "0x31874664bfe29e31b283a5e121bc07cf10f366f4eb8f66dc91948d06df5a4b5d",
      "blockNumber": "0x8bc6df",
      "gasUsed": "0x4b99c",
      "effectiveGasPrice": "0x2dc425",
      "from": "0xf1c71f5456aa91572034ca7c3286e90974c2c498",
      "to": "0xaa8e6e6b2ba9282a6718294207700fcad1f2c46e",
      "contractAddress": null
    }
  ],
  "libraries": [],
  "pending": [],
  "returns": {},
  "timestamp": 1757338802,
  "chain": 11155111,
  "commit": null
}