{
  "transactions": [
    {
      "hash": "0x51fc6478ffcfee745cdadeb2ab21ef6b03853b4a5d13ae7192743239988006f7",
      "transactionType": "CALL",
      "contractName": null,
      "contractAddress": "0x14e905da48f7093e30ce60f8d2ed033f4aaf04bb",
      "function": "applyChainUpdates(uint64[],(uint64,bytes[],bytes,(bool,uint128,uint128),(bool,uint128,uint128))[])",
      "arguments": [
        "[]",
        "[(6898391096552792247, [0x000000000000000000000000442b835d0b13cdce448716c344db6d4bd046b0bb], 0x0000000000000000000000000bc47589a0125f4b8da06398a1db8fc5c5f8556d, (false, 0, 0), (false, 0, 0))]"
      ],
      "transaction": {
        "from": "0xf1c71f5456aa91572034ca7c3286e90974c2c498",
        "to": "0x14e905da48f7093e30ce60f8d2ed033f4aaf04bb",
        "gas": "0x686c4",
        "value": "0x0",
        "input": "0xe8a1da17000000000000000000000000000000000000000000000000000000000000004000000000000000000000000000000000000000000000000000000000000000600000000000000000000000000000000000000000000000000000000000000000000000000000000000000000000000000000000000000000000000000000000100000000000000000000000000000000000000000000000000000000000000200000000000000000000000000000000000000000000000005fbc02272fbf20b7000000000000000000000000000000000000000000000000000000000000012000000000000000000000000000000000000000000000000000000000000001a0000000000000000000000000000000000000000000000000000000000000000000000000000000000000000000000000000000000000000000000000000000000000000000000000000000000000000000000000000000000000000000000000000000000000000000000000000000000000000000000000000000000000000000000000000000000000000000000000000000000000000000000000000000000000000000000000000000000000000000000000000000000000000000000000000000000000000000000000000000000000000000000000000000000000000100000000000000000000000000000000000000000000000000000000000000200000000000000000000000000000000000000000000000000000000000000020000000000000000000000000442b835d0b13cdce448716c344db6d4bd046b0bb00000000000000000000000000000000000000000000000000000000000000200000000000000000000000000bc47589a0125f4b8da06398a1db8fc5c5f8556d",
        "nonce": "0x3f",
        "chainId": "0xaa36a7"
      },
      "additionalContracts": [],
      "isFixedGasLimit": false
    }
  ],
  "receipts": [
    {
      "status": "0x1",
      "cumulativeGasUsed": "0x159cbbf",
      "logs": [
        {
          "address": "0x14e905da48f7093e30ce60f8d2ed033f4aaf04bb",
          "topics": [
            "0x7d628c9a1796743d365ab521a8b2a4686e419b3269919dc9145ea2ce853b54ea",
            "0x0000000000000000000000000000000000000000000000005fbc02272fbf20b7"
          ],
          "data": "0x00000000000000000000000000000000000000000000000000000000000000200000000000000000000000000000000000000000000000000000000000000020000000000000000000000000442b835d0b13cdce448716c344db6d4bd046b0bb",
          "blockHash": "0xcf71b2658f2197058cb1a1bee46ba55e6af57795966a55181965dbd9f1d7d4f1",
          "blockNumber": "0x8bc64a",
          "blockTimestamp": "0x68bed5a8",
          "transactionHash": "0x51fc6478ffcfee745cdadeb2ab21ef6b03853b4a5d13ae7192743239988006f7",
          "transactionIndex": "0x62",
          "logIndex": "0x6e",
          "removed": false
        },
        {
          "address": "0x14e905da48f7093e30ce60f8d2ed033f4aaf04bb",
          "topics": [
            "0x8d340f17e19058004c20453540862a9c62778504476f6756755cb33bcd6c38c2"
          ],
          "data": "0x0000000000000000000000000000000000000000000000005fbc02272fbf20b7000000000000000000000000000000000000000000000000000000000000010000000000000000000000000000000000000000000000000000000000000000000000000000000000000000000000000000000000000000000000000000000000000000000000000000000000000000000000000000000000000000000000000000000000000000000000000000000000000000000000000000000000000000000000000000000000000000000000000000000000000000000000000000000000000000000000000000000000000000000000000000000000000000000000000000000000000000000000000000000000000000000000000000000000000000200000000000000000000000000bc47589a0125f4b8da06398a1db8fc5c5f8556d",
          "blockHash": "0xcf71b2658f2197058cb1a1bee46ba55e6af57795966a55181965dbd9f1d7d4f1",
          "blockNumber": "0x8bc64a",
          "blockTimestamp": "0x68bed5a8",
          "transactionHash": "0x51fc6478ffcfee745cdadeb2ab21ef6b03853b4a5d13ae7192743239988006f7",
          "transactionIndex": "0x62",
          "logIndex": "0x6f",
          "removed": false
        }
      ],
      "logsBloom": "0x00000000000000400000000000000000000000000000000000000000000000000000000000000000000000000000000000000000000000000004000000000004000000000000000000000000040000000000000000000000000000000000000000000000000000000000000000000040000000000000000000000000000000400000000000000000000000000000000000000000000000000000000000000000000000000000008000000000000000000000000000000000000000000000000000000000000000000000000000100000000000000000000000000000002000000000000000000000000000000000000000000000008000000100000000400000",
      "type": "0x2",
      "transactionHash": "0x51fc6478ffcfee745cdadeb2ab21ef6b03853b4a5d13ae7192743239988006f7",
      "transactionIndex": "0x62",
      "blockHash": "0xcf71b2658f2197058cb1a1bee46ba55e6af57795966a55181965dbd9f1d7d4f1",
      "blockNumber": "0x8bc64a",
      "gasUsed": "0x4b99c",
      "effectiveGasPrice": "0x5a0428",
      "from": "0xf1c71f5456aa91572034ca7c3286e90974c2c498",
      "to": "0x14e905da48f7093e30ce60f8d2ed033f4aaf04bb",
      "contractAddress": null
    }
  ],
  "libraries": [],
  "pending": [],
  "returns": {},
  "timestamp": 1757337000,
  "chain": 11155111,
  "commit": null
}