{
  "transactions": [
    {
      "hash": "0xfb730c60afdda5cae9ce81eb9689063ca3487a0dbf6010a6ed86ca4ad9d22ec2",
      "transactionType": "CALL",
      "contractName": null,
      "contractAddress": "0xe81ebe6c07cecc6d9b445c0c80ecfe0444320bb1",
      "function": "applyChainUpdates(uint64[],(uint64,bytes[],bytes,(bool,uint128,uint128),(bool,uint128,uint128))[])",
      "arguments": [
        "[]",
        "[(6898391096552792247, [0x00000000000000000000000032e0f6ccfe1551e0ea97d5ba0ff1739c3e16a903], 0x0000000000000000000000000473a3d46db68258f5a5ebaf6877a2f47515db2a, (false, 0, 0), (false, 0, 0))]"
      ],
      "transaction": {
        "from": "0xf1c71f5456aa91572034ca7c3286e90974c2c498",
        "to": "0xe81ebe6c07cecc6d9b445c0c80ecfe0444320bb1",
        "gas": "0x686c4",
        "value": "0x0",
        "input": "0xe8a1da17000000000000000000000000000000000000000000000000000000000000004000000000000000000000000000000000000000000000000000000000000000600000000000000000000000000000000000000000000000000000000000000000000000000000000000000000000000000000000000000000000000000000000100000000000000000000000000000000000000000000000000000000000000200000000000000000000000000000000000000000000000005fbc02272fbf20b7000000000000000000000000000000000000000000000000000000000000012000000000000000000000000000000000000000000000000000000000000001a000000000000000000000000000000000000000000000000000000000000000000000000000000000000000000000000000000000000000000000000000000000000000000000000000000000000000000000000000000000000000000000000000000000000000000000000000000000000000000000000000000000000000000000000000000000000000000000000000000000000000000000000000000000000000000000000000000000000000000000000000000000000000000000000000000000000000000000000000000000000000000000000000000000000000010000000000000000000000000000000000000000000000000000000000000020000000000000000000000000000000000000000000000000000000000000002000000000000000000000000032e0f6ccfe1551e0ea97d5ba0ff1739c3e16a90300000000000000000000000000000000000000000000000000000000000000200000000000000000000000000473a3d46db68258f5a5ebaf6877a2f47515db2a",
        "nonce": "0xa9",
        "chainId": "0xaa36a7"
      },
      "additionalContracts": [],
      "isFixedGasLimit": false
    }
  ],
  "receipts": [
    {
      "status": "0x1",
      "cumulativeGasUsed": "0x800fac",
      "logs": [
        {
          "address": "0xe81ebe6c07cecc6d9b445c0c80ecfe0444320bb1",
          "topics": [
            "0x7d628c9a1796743d365ab521a8b2a4686e419b3269919dc9145ea2ce853b54ea",
            "0x0000000000000000000000000000000000000000000000005fbc02272fbf20b7"
          ],
          "data": "0x0000000000000000000000000000000000000000000000000000000000000020000000000000000000000000000000000000000000000000000000000000002000000000000000000000000032e0f6ccfe1551e0ea97d5ba0ff1739c3e16a903",
          "blockHash": "0xe52c5c67262487455b538f5f76b9d63e6eb956a8fe20ddc6f7903d2d3084b8d7",
          "blockNumber": "0x91f5f0",
          "blockTimestamp": "0x690b36e8",
          "transactionHash": "0xfb730c60afdda5cae9ce81eb9689063ca3487a0dbf6010a6ed86ca4ad9d22ec2",
          "transactionIndex": "0x30",
          "logIndex": "0x3d",
          "removed": false
        },
        {
          "address": "0xe81ebe6c07cecc6d9b445c0c80ecfe0444320bb1",
          "topics": [
            "0x8d340f17e19058004c20453540862a9c62778504476f6756755cb33bcd6c38c2"
          ],
          "data": "0x0000000000000000000000000000000000000000000000005fbc02272fbf20b7000000000000000000000000000000000000000000000000000000000000010000000000000000000000000000000000000000000000000000000000000000000000000000000000000000000000000000000000000000000000000000000000000000000000000000000000000000000000000000000000000000000000000000000000000000000000000000000000000000000000000000000000000000000000000000000000000000000000000000000000000000000000000000000000000000000000000000000000000000000000000000000000000000000000000000000000000000000000000000000000000000000000000000000000000000200000000000000000000000000473a3d46db68258f5a5ebaf6877a2f47515db2a",
          "blockHash": "0xe52c5c67262487455b538f5f76b9d63e6eb956a8fe20ddc6f7903d2d3084b8d7",
          "blockNumber": "0x91f5f0",
          "blockTimestamp": "0x690b36e8",
          "transactionHash": "0xfb730c60afdda5cae9ce81eb9689063ca3487a0dbf6010a6ed86ca4ad9d22ec2",
          "transactionIndex": "0x30",
          "logIndex": "0x3e",
          "removed": false
        }
      ],
      "logsBloom": "0x00000000000000400000000000000000000000000000000000000000000000000000000000000000000000000000000000000000000000000004000000000004000000000100000000000000040000000000000000000000000000000000000000000000000000000000000000000040000000000000000000000000000000400000000000000000000000000000000000200000000010000000000000000000000000000000008000000000000000000000000000000000000000000000000000000000000000000000000000000000000000000000000000000000000000000000000000000000000000000000000000000000008000000100000000000000",
      "type": "0x2",
      "transactionHash": "0xfb730c60afdda5cae9ce81eb9689063ca3487a0dbf6010a6ed86ca4ad9d22ec2",
      "transactionIndex": "0x30",
      "blockHash": "0xe52c5c67262487455b538f5f76b9d63e6eb956a8fe20ddc6f7903d2d3084b8d7",
      "blockNumber": "0x91f5f0",
      "gasUsed": "0x4b99c",
      "effectiveGasPrice": "0xf424a",
      "from": "0xf1c71f5456aa91572034ca7c3286e90974c2c498",
      "to": "0xe81ebe6c07cecc6d9b445c0c80ecfe0444320bb1",
      "contractAddress": null
    }
  ],
  "libraries": [],
  "pending": [],
  "returns": {},
  "timestamp": 1762342633,
  "chain": 11155111,
  "commit": "18ffa8d"
}