{
  "transactions": [
    {
      "hash": "0x84853f50ba3a7c53498cd7e0898d7fc2cd4e07457d59879410ad17f2154446fb",
      "transactionType": "CALL",
      "contractName": null,
      "contractAddress": "0x7927c2aed29194eae82d1959bc1e925d6a4f696f",
      "function": "applyChainUpdates(uint64[],(uint64,bytes[],bytes,(bool,uint128,uint128),(bool,uint128,uint128))[])",
      "arguments": [
        "[]",
        "[(6898391096552792247, [0x000000000000000000000000218c21529a2f45aafad051b873a76cb96f67dd70], 0x00000000000000000000000043320b913de5b75cc2e89e997fbce550d1b1fc86, (false, 0, 0), (false, 0, 0))]"
      ],
      "transaction": {
        "from": "0xf1c71f5456aa91572034ca7c3286e90974c2c498",
        "to": "0x7927c2aed29194eae82d1959bc1e925d6a4f696f",
        "gas": "0x686c4",
        "value": "0x0",
        "input": "0xe8a1da17000000000000000000000000000000000000000000000000000000000000004000000000000000000000000000000000000000000000000000000000000000600000000000000000000000000000000000000000000000000000000000000000000000000000000000000000000000000000000000000000000000000000000100000000000000000000000000000000000000000000000000000000000000200000000000000000000000000000000000000000000000005fbc02272fbf20b7000000000000000000000000000000000000000000000000000000000000012000000000000000000000000000000000000000000000000000000000000001a0000000000000000000000000000000000000000000000000000000000000000000000000000000000000000000000000000000000000000000000000000000000000000000000000000000000000000000000000000000000000000000000000000000000000000000000000000000000000000000000000000000000000000000000000000000000000000000000000000000000000000000000000000000000000000000000000000000000000000000000000000000000000000000000000000000000000000000000000000000000000000000000000000000000000000100000000000000000000000000000000000000000000000000000000000000200000000000000000000000000000000000000000000000000000000000000020000000000000000000000000218c21529a2f45aafad051b873a76cb96f67dd70000000000000000000000000000000000000000000000000000000000000002000000000000000000000000043320b913de5b75cc2e89e997fbce550d1b1fc86",
        "nonce": "0x79",
        "chainId": "0xaa36a7"
      },
      "additionalContracts": [],
      "isFixedGasLimit": false
    }
  ],
  "receipts": [
    {
      "status": "0x1",
      "cumulativeGasUsed": "0x9c0a1e",
      "logs": [
        {
          "address": "0x7927c2aed29194eae82d1959bc1e925d6a4f696f",
          "topics": [
            "0x7d628c9a1796743d365ab521a8b2a4686e419b3269919dc9145ea2ce853b54ea",
            "0x0000000000000000000000000000000000000000000000005fbc02272fbf20b7"
          ],
          "data": "0x00000000000000000000000000000000000000000000000000000000000000200000000000000000000000000000000000000000000000000000000000000020000000000000000000000000218c21529a2f45aafad051b873a76cb96f67dd70",
          "blockHash": "0x3412ec83380fe9dd4025e7aa1a85a1dc6d5108013e7ef512b7d4f74fd0d3ad96",
          "blockNumber": "0x8bc982",
          "blockTimestamp": "0x68befcfc",
          "transactionHash": "0x84853f50ba3a7c53498cd7e0898d7fc2cd4e07457d59879410ad17f2154446fb",
          "transactionIndex": "0x52",
          "logIndex": "0xa3",
          "removed": false
        },
        {
          "address": "0x7927c2aed29194eae82d1959bc1e925d6a4f696f",
          "topics": [
            "0x8d340f17e19058004c20453540862a9c62778504476f6756755cb33bcd6c38c2"
          ],
          "data": "0x0000000000000000000000000000000000000000000000005fbc02272fbf20b70000000000000000000000000000000000000000000000000000000000000100000000000000000000000000000000000000000000000000000000000000000000000000000000000000000000000000000000000000000000000000000000000000000000000000000000000000000000000000000000000000000000000000000000000000000000000000000000000000000000000000000000000000000000000000000000000000000000000000000000000000000000000000000000000000000000000000000000000000000000000000000000000000000000000000000000000000000000000000000000000000000000000000000000000000002000000000000000000000000043320b913de5b75cc2e89e997fbce550d1b1fc86",
          "blockHash": "0x3412ec83380fe9dd4025e7aa1a85a1dc6d5108013e7ef512b7d4f74fd0d3ad96",
          "blockNumber": "0x8bc982",
          "blockTimestamp": "0x68befcfc",
          "transactionHash": "0x84853f50ba3a7c53498cd7e0898d7fc2cd4e07457d59879410ad17f2154446fb",
          "transactionIndex": "0x52",
          "logIndex": "0xa4",
          "removed": false
        }
      ],
      "logsBloom": "0x00000000000000400000000000000000000000000000000000000000000000000000000000000000000000000000000000000000000000000004000000000004000000000000000000000000040000000000000000000000000000000000000000000008000000000000000000000040000000000000000000000000002000400000000000000000000000000000000000000000000000000000000000000000000000000000008000000000000000000000000000000000000000000000000080000000000000000000000000000000000000000000000000000000000000000000000000000000000000000000000000000000008000000100000000000000",
      "type": "0x2",
      "transactionHash": "0x84853f50ba3a7c53498cd7e0898d7fc2cd4e07457d59879410ad17f2154446fb",
      "transactionIndex": "0x52",
      "blockHash": "0x3412ec83380fe9dd4025e7aa1a85a1dc6d5108013e7ef512b7d4f74fd0d3ad96",
      "blockNumber": "0x8bc982",
      "gasUsed": "0x4b99c",
      "effectiveGasPrice": "0x28ac53",
      "from": "0xf1c71f5456aa91572034ca7c3286e90974c2c498",
      "to": "0x7927c2aed29194eae82d1959bc1e925d6a4f696f",
      "contractAddress": null
    }
  ],
  "libraries": [],
  "pending": [],
  "returns": {},
  "timestamp": 1757347069,
  "chain": 11155111,
  "commit": null
}