{
  "transactions": [
    {
      "hash": "0xd60e165adb76f9a90c2498b62d1e008cebd9c0ac96b82954f972887fb9338227",
      "transactionType": "CALL",
      "contractName": null,
      "contractAddress": "0x0205c1e038bfaddb116e92bcc8ba4e4ba058d2e6",
      "function": "applyChainUpdates(uint64[],(uint64,bytes[],bytes,(bool,uint128,uint128),(bool,uint128,uint128))[])",
      "arguments": [
        "[]",
        "[(6898391096552792247, [0x000000000000000000000000fbc8bad22154071a9eb131d8a5863443d207d0a4], 0x000000000000000000000000e29c13ecd5ed6393d7e8ea013068474d901fb5df, (false, 0, 0), (false, 0, 0))]"
      ],
      "transaction": {
        "from": "0xf1c71f5456aa91572034ca7c3286e90974c2c498",
        "to": "0x0205c1e038bfaddb116e92bcc8ba4e4ba058d2e6",
        "gas": "0x686c4",
        "value": "0x0",
        "input": "0xe8a1da17000000000000000000000000000000000000000000000000000000000000004000000000000000000000000000000000000000000000000000000000000000600000000000000000000000000000000000000000000000000000000000000000000000000000000000000000000000000000000000000000000000000000000100000000000000000000000000000000000000000000000000000000000000200000000000000000000000000000000000000000000000005fbc02272fbf20b7000000000000000000000000000000000000000000000000000000000000012000000000000000000000000000000000000000000000000000000000000001a0000000000000000000000000000000000000000000000000000000000000000000000000000000000000000000000000000000000000000000000000000000000000000000000000000000000000000000000000000000000000000000000000000000000000000000000000000000000000000000000000000000000000000000000000000000000000000000000000000000000000000000000000000000000000000000000000000000000000000000000000000000000000000000000000000000000000000000000000000000000000000000000000000000000000000100000000000000000000000000000000000000000000000000000000000000200000000000000000000000000000000000000000000000000000000000000020000000000000000000000000fbc8bad22154071a9eb131d8a5863443d207d0a40000000000000000000000000000000000000000000000000000000000000020000000000000000000000000e29c13ecd5ed6393d7e8ea013068474d901fb5df",
        "nonce": "0x6d",
        "chainId": "0xaa36a7"
      },
      "additionalContracts": [],
      "isFixedGasLimit": false
    }
  ],
  "receipts": [
    {
      "status": "0x1",
      "cumulativeGasUsed": "0x5f2275",
      "logs": [
        {
          "address": "0x0205c1e038bfaddb116e92bcc8ba4e4ba058d2e6",
          "topics": [
            "0x7d628c9a1796743d365ab521a8b2a4686e419b3269919dc9145ea2ce853b54ea",
            "0x0000000000000000000000000000000000000000000000005fbc02272fbf20b7"
          ],
          "data": "0x00000000000000000000000000000000000000000000000000000000000000200000000000000000000000000000000000000000000000000000000000000020000000000000000000000000fbc8bad22154071a9eb131d8a5863443d207d0a4",
          "blockHash": "0x73c6d2bd974bd9ba281ad191d150027e99d6b0ab677ca14682fe6097ced0d38c",
          "blockNumber": "0x8bc90d",
          "blockTimestamp": "0x68bef75c",
          "transactionHash": "0xd60e165adb76f9a90c2498b62d1e008cebd9c0ac96b82954f972887fb9338227",
          "transactionIndex": "0x2e",
          "logIndex": "0x3b",
          "removed": false
        },
        {
          "address": "0x0205c1e038bfaddb116e92bcc8ba4e4ba058d2e6",
          "topics": [
            "0x8d340f17e19058004c20453540862a9c62778504476f6756755cb33bcd6c38c2"
          ],
          "data": "0x0000000000000000000000000000000000000000000000005fbc02272fbf20b700000000000000000000000000000000000000000000000000000000000001000000000000000000000000000000000000000000000000000000000000000000000000000000000000000000000000000000000000000000000000000000000000000000000000000000000000000000000000000000000000000000000000000000000000000000000000000000000000000000000000000000000000000000000000000000000000000000000000000000000000000000000000000000000000000000000000000000000000000000000000000000000000000000000000000000000000000000000000000000000000000000000000000000000000000020000000000000000000000000e29c13ecd5ed6393d7e8ea013068474d901fb5df",
          "blockHash": "0x73c6d2bd974bd9ba281ad191d150027e99d6b0ab677ca14682fe6097ced0d38c",
          "blockNumber": "0x8bc90d",
          "blockTimestamp": "0x68bef75c",
          "transactionHash": "0xd60e165adb76f9a90c2498b62d1e008cebd9c0ac96b82954f972887fb9338227",
          "transactionIndex": "0x2e",
          "logIndex": "0x3c",
          "removed": false
        }
      ],
      "logsBloom": "0x00000000000000410000000000000000000000000000000000000000000000000000000000000000000000000000000000000100000000000004000000000004000000000000000000000000040000000000000000000000000000000000000000000000000000000000000000000040000000000000000000000000000000400000000000000000000000000000000000000000000000000000000000000000000000000080008000000000000000000000000000000000000000000000000000000000000000000000000000000000000000000000000000000000000000000000000000000000000000000000000000000000008000000100000000000000",
      "type": "0x2",
      "transactionHash": "0xd60e165adb76f9a90c2498b62d1e008cebd9c0ac96b82954f972887fb9338227",
      "transactionIndex": "0x2e",
      "blockHash": "0x73c6d2bd974bd9ba281ad191d150027e99d6b0ab677ca14682fe6097ced0d38c",
      "blockNumber": "0x8bc90d",
      "gasUsed": "0x4b99c",
      "effectiveGasPrice": "0x37df35",
      "from": "0xf1c71f5456aa91572034ca7c3286e90974c2c498",
      "to": "0x0205c1e038bfaddb116e92bcc8ba4e4ba058d2e6",
      "contractAddress": null
    }
  ],
  "libraries": [],
  "pending": [],
  "returns": {},
  "timestamp": 1757345628,
  "chain": 11155111,
  "commit": null
}