{
  "transactions": [
    {
      "hash": "0x8e6a5e44ba181591f51e20ceeb7874e8c3b1c23975c784bea77e54fac3bde304",
      "transactionType": "CALL",
      "contractName": null,
      "contractAddress": "0x7c2840907fa0b07bda0a22741e018224e858b587",
      "function": "applyChainUpdates(uint64[],(uint64,bytes[],bytes,(bool,uint128,uint128),(bool,uint128,uint128))[])",
      "arguments": [
        "[]",
        "[(6898391096552792247, [0x000000000000000000000000e51cfb85010620051937332ce1e524ba97757961], 0x0000000000000000000000003b0b4d341ef4f1fb5d7daa0740b06025ecbf24f8, (false, 0, 0), (false, 0, 0))]"
      ],
      "transaction": {
        "from": "0xf1c71f5456aa91572034ca7c3286e90974c2c498",
        "to": "0x7c2840907fa0b07bda0a22741e018224e858b587",
        "gas": "0x686c4",
        "value": "0x0",
        "input": "0xe8a1da17000000000000000000000000000000000000000000000000000000000000004000000000000000000000000000000000000000000000000000000000000000600000000000000000000000000000000000000000000000000000000000000000000000000000000000000000000000000000000000000000000000000000000100000000000000000000000000000000000000000000000000000000000000200000000000000000000000000000000000000000000000005fbc02272fbf20b7000000000000000000000000000000000000000000000000000000000000012000000000000000000000000000000000000000000000000000000000000001a0000000000000000000000000000000000000000000000000000000000000000000000000000000000000000000000000000000000000000000000000000000000000000000000000000000000000000000000000000000000000000000000000000000000000000000000000000000000000000000000000000000000000000000000000000000000000000000000000000000000000000000000000000000000000000000000000000000000000000000000000000000000000000000000000000000000000000000000000000000000000000000000000000000000000000100000000000000000000000000000000000000000000000000000000000000200000000000000000000000000000000000000000000000000000000000000020000000000000000000000000e51cfb85010620051937332ce1e524ba9775796100000000000000000000000000000000000000000000000000000000000000200000000000000000000000003b0b4d341ef4f1fb5d7daa0740b06025ecbf24f8",
        "nonce": "0x55",
        "chainId": "0xaa36a7"
      },
      "additionalContracts": [],
      "isFixedGasLimit": false
    }
  ],
  "receipts": [
    {
      "status": "0x1",
      "cumulativeGasUsed": "0x9b8e65",
      "logs": [
        {
          "address": "0x7c2840907fa0b07bda0a22741e018224e858b587",
          "topics": [
            "0x7d628c9a1796743d365ab521a8b2a4686e419b3269919dc9145ea2ce853b54ea",
            "0x0000000000000000000000000000000000000000000000005fbc02272fbf20b7"
          ],
          "data": "0x00000000000000000000000000000000000000000000000000000000000000200000000000000000000000000000000000000000000000000000000000000020000000000000000000000000e51cfb85010620051937332ce1e524ba97757961",
          "blockHash": "0x73763e619cd7d180a974b69c5e5310bd3f390425d16e2595feae42ae3b33a7c2",
          "blockNumber": "0x8bc711",
          "blockTimestamp": "0x68bedf08",
          "transactionHash": "0x8e6a5e44ba181591f51e20ceeb7874e8c3b1c23975c784bea77e54fac3bde304",
          "transactionIndex": "0x49",
          "logIndex": "0x6d",
          "removed": false
        },
        {
          "address": "0x7c2840907fa0b07bda0a22741e018224e858b587",
          "topics": [
            "0x8d340f17e19058004c20453540862a9c62778504476f6756755cb33bcd6c38c2"
          ],
          "data": "0x0000000000000000000000000000000000000000000000005fbc02272fbf20b7000000000000000000000000000000000000000000000000000000000000010000000000000000000000000000000000000000000000000000000000000000000000000000000000000000000000000000000000000000000000000000000000000000000000000000000000000000000000000000000000000000000000000000000000000000000000000000000000000000000000000000000000000000000000000000000000000000000000000000000000000000000000000000000000000000000000000000000000000000000000000000000000000000000000000000000000000000000000000000000000000000000000000000000000000000200000000000000000000000003b0b4d341ef4f1fb5d7daa0740b06025ecbf24f8",
          "blockHash": "0x73763e619cd7d180a974b69c5e5310bd3f390425d16e2595feae42ae3b33a7c2",
          "blockNumber": "0x8bc711",
          "blockTimestamp": "0x68bedf08",
          "transactionHash": "0x8e6a5e44ba181591f51e20ceeb7874e8c3b1c23975c784bea77e54fac3bde304",
          "transactionIndex": "0x49",
          "logIndex": "0x6e",
          "removed": false
        }
      ],
      "logsBloom": "0x00000000000000400000000000000000000004000000000000000000000000000000000000000000000000000000000000000000000000000004000000000004000000000000000000000000040000000004000000000000000000000000000000000000000000000000000000000040000000000000000000000000000000400000000000000010000000000000000000000000000000000000000000000000000000000000008000000000000000000000000000000000000000000000000000000000000000000000000000000000000000000000000000000000000000000000000000000000000000000000000000000000008000000100000000000000",
      "type": "0x2",
      "transactionHash": "0x8e6a5e44ba181591f51e20ceeb7874e8c3b1c23975c784bea77e54fac3bde304",
      "transactionIndex": "0x49",
      "blockHash": "0x73763e619cd7d180a974b69c5e5310bd3f390425d16e2595feae42ae3b33a7c2",
      "blockNumber": "0x8bc711",
      "gasUsed": "0x4b99c",
      "effectiveGasPrice": "0x74b679",
      "from": "0xf1c71f5456aa91572034ca7c3286e90974c2c498",
      "to": "0x7c2840907fa0b07bda0a22741e018224e858b587",
      "contractAddress": null
    }
  ],
  "libraries": [],
  "pending": [],
  "returns": {},
  "timestamp": 1757339402,
  "chain": 11155111,
  "commit": null
}