{
  "transactions": [
    {
      "hash": "0xe73eb736c24fa55f443b9a0d4952a472b9ee2a45a56c6545390753bbedc485be",
      "transactionType": "CALL",
      "contractName": null,
      "contractAddress": "0xf228e518f5bfc06d64562c33895047f521a70b32",
      "function": "applyChainUpdates(uint64[],(uint64,bytes[],bytes,(bool,uint128,uint128),(bool,uint128,uint128))[])",
      "arguments": [
        "[]",
        "[(6898391096552792247, [0x00000000000000000000000089f969442c620efbd0c92ef760186bcb9c76b126], 0x000000000000000000000000293aa7e2bc4ace5050cc30390cf08f444b0c4f35, (false, 0, 0), (false, 0, 0))]"
      ],
      "transaction": {
        "from": "0xf1c71f5456aa91572034ca7c3286e90974c2c498",
        "to": "0xf228e518f5bfc06d64562c33895047f521a70b32",
        "gas": "0x686c4",
        "value": "0x0",
        "input": "0xe8a1da17000000000000000000000000000000000000000000000000000000000000004000000000000000000000000000000000000000000000000000000000000000600000000000000000000000000000000000000000000000000000000000000000000000000000000000000000000000000000000000000000000000000000000100000000000000000000000000000000000000000000000000000000000000200000000000000000000000000000000000000000000000005fbc02272fbf20b7000000000000000000000000000000000000000000000000000000000000012000000000000000000000000000000000000000000000000000000000000001a000000000000000000000000000000000000000000000000000000000000000000000000000000000000000000000000000000000000000000000000000000000000000000000000000000000000000000000000000000000000000000000000000000000000000000000000000000000000000000000000000000000000000000000000000000000000000000000000000000000000000000000000000000000000000000000000000000000000000000000000000000000000000000000000000000000000000000000000000000000000000000000000000000000000000010000000000000000000000000000000000000000000000000000000000000020000000000000000000000000000000000000000000000000000000000000002000000000000000000000000089f969442c620efbd0c92ef760186bcb9c76b1260000000000000000000000000000000000000000000000000000000000000020000000000000000000000000293aa7e2bc4ace5050cc30390cf08f444b0c4f35",
        "nonce": "0x61",
        "chainId": "0xaa36a7"
      },
      "additionalContracts": [],
      "isFixedGasLimit": false
    }
  ],
  "receipts": [
    {
      "status": "0x1",
      "cumulativeGasUsed": "0xa0f8fe",
      "logs": [
        {
          "address": "0xf228e518f5bfc06d64562c33895047f521a70b32",
          "topics": [
            "0x7d628c9a1796743d365ab521a8b2a4686e419b3269919dc9145ea2ce853b54ea",
            "0x0000000000000000000000000000000000000000000000005fbc02272fbf20b7"
          ],
          "data": "0x0000000000000000000000000000000000000000000000000000000000000020000000000000000000000000000000000000000000000000000000000000002000000000000000000000000089f969442c620efbd0c92ef760186bcb9c76b126",
          "blockHash": "0x79b97f29db8da6b22ab308d7f94a7c746aba02286c31c81f63773bb2042f3cef",
          "blockNumber": "0x8bc812",
          "blockTimestamp": "0x68beeb68",
          "transactionHash": "0xe73eb736c24fa55f443b9a0d4952a472b9ee2a45a56c6545390753bbedc485be",
          "transactionIndex": "0x83",
          "logIndex": "0xe4",
          "removed": false
        },
        {
          "address": "0xf228e518f5bfc06d64562c33895047f521a70b32",
          "topics": [
            "0x8d340f17e19058004c20453540862a9c62778504476f6756755cb33bcd6c38c2"
          ],
          "data": "0x0000000000000000000000000000000000000000000000005fbc02272fbf20b700000000000000000000000000000000000000000000000000000000000001000000000000000000000000000000000000000000000000000000000000000000000000000000000000000000000000000000000000000000000000000000000000000000000000000000000000000000000000000000000000000000000000000000000000000000000000000000000000000000000000000000000000000000000000000000000000000000000000000000000000000000000000000000000000000000000000000000000000000000000000000000000000000000000000000000000000000000000000000000000000000000000000000000000000000020000000000000000000000000293aa7e2bc4ace5050cc30390cf08f444b0c4f35",
          "blockHash": "0x79b97f29db8da6b22ab308d7f94a7c746aba02286c31c81f63773bb2042f3cef",
          "blockNumber": "0x8bc812",
          "blockTimestamp": "0x68beeb68",
          "transactionHash": "0xe73eb736c24fa55f443b9a0d4952a472b9ee2a45a56c6545390753bbedc485be",
          "transactionIndex": "0x83",
          "logIndex": "0xe5",
          "removed": false
        }
      ],
      "logsBloom": "0x00000000000000400000000000000000000000000000000000000000000000000000000000000000000004000000000000000000000000000004000000000004000000000000000000000000040000000000000000000200000000000000000000000000000000000000000000000040000000000000000000000000000000400000000000000000000000000000000000000000000000000000000000000000000000000000008000000000000000000000000000001000000000000000000000000000000000000000000000000000000000000000000000000000000000000000000000000000000000000000000000000000008000000100000000000000",
      "type": "0x2",
      "transactionHash": "0xe73eb736c24fa55f443b9a0d4952a472b9ee2a45a56c6545390753bbedc485be",
      "transactionIndex": "0x83",
      "blockHash": "0x79b97f29db8da6b22ab308d7f94a7c746aba02286c31c81f63773bb2042f3cef",
      "blockNumber": "0x8bc812",
      "gasUsed": "0x4b99c",
      "effectiveGasPrice": "0x2f7902",
      "from": "0xf1c71f5456aa91572034ca7c3286e90974c2c498",
      "to": "0xf228e518f5bfc06d64562c33895047f521a70b32",
      "contractAddress": null
    }
  ],
  "libraries": [],
  "pending": [],
  "returns": {},
  "timestamp": 1757342571,
  "chain": 11155111,
  "commit": null
}