{
  "transactions": [
    {
      "hash": "0x0c6bd4f00e34ab7b01716390ffe5f8fe08e0304442c1c17f99c197c12716d72c",
      "transactionType": "CALL",
      "contractName": null,
      "contractAddress": "0x44e53dc88016af68b0803357c84e5ddc88557137",
      "function": "applyChainUpdates(uint64[],(uint64,bytes[],bytes,(bool,uint128,uint128),(bool,uint128,uint128))[])",
      "arguments": [
        "[]",
        "[(6898391096552792247, [0x0000000000000000000000000f1cf76d286cae86d395851fc4053433f51d6442], 0x000000000000000000000000564ab491cadf0bf2431373e50eec097befbbf055, (false, 0, 0), (false, 0, 0))]"
      ],
      "transaction": {
        "from": "0xf1c71f5456aa91572034ca7c3286e90974c2c498",
        "to": "0x44e53dc88016af68b0803357c84e5ddc88557137",
        "gas": "0x686c4",
        "value": "0x0",
        "input": "0xe8a1da17000000000000000000000000000000000000000000000000000000000000004000000000000000000000000000000000000000000000000000000000000000600000000000000000000000000000000000000000000000000000000000000000000000000000000000000000000000000000000000000000000000000000000100000000000000000000000000000000000000000000000000000000000000200000000000000000000000000000000000000000000000005fbc02272fbf20b7000000000000000000000000000000000000000000000000000000000000012000000000000000000000000000000000000000000000000000000000000001a00000000000000000000000000000000000000000000000000000000000000000000000000000000000000000000000000000000000000000000000000000000000000000000000000000000000000000000000000000000000000000000000000000000000000000000000000000000000000000000000000000000000000000000000000000000000000000000000000000000000000000000000000000000000000000000000000000000000000000000000000000000000000000000000000000000000000000000000000000000000000000000000000000000000000001000000000000000000000000000000000000000000000000000000000000002000000000000000000000000000000000000000000000000000000000000000200000000000000000000000000f1cf76d286cae86d395851fc4053433f51d64420000000000000000000000000000000000000000000000000000000000000020000000000000000000000000564ab491cadf0bf2431373e50eec097befbbf055",
        "nonce": "0x67",
        "chainId": "0xaa36a7"
      },
      "additionalContracts": [],
      "isFixedGasLimit": false
    }
  ],
  "receipts": [
    {
      "status": "0x1",
      "cumulativeGasUsed": "0xf3edfd",
      "logs": [
        {
          "address": "0x44e53dc88016af68b0803357c84e5ddc88557137",
          "topics": [
            "0x7d628c9a1796743d365ab521a8b2a4686e419b3269919dc9145ea2ce853b54ea",
            "0x0000000000000000000000000000000000000000000000005fbc02272fbf20b7"
          ],
          "data": "0x000000000000000000000000000000000000000000000000000000000000002000000000000000000000000000000000000000000000000000000000000000200000000000000000000000000f1cf76d286cae86d395851fc4053433f51d6442",
          "blockHash": "0x0908160dd27d494746523617fbc9beacc7dfb4a81c4767cd36b336d1784631fe",
          "blockNumber": "0x8bc8c0",
          "blockTimestamp": "0x68bef3a8",
          "transactionHash": "0x0c6bd4f00e34ab7b01716390ffe5f8fe08e0304442c1c17f99c197c12716d72c",
          "transactionIndex": "0x4e",
          "logIndex": "0x5f",
          "removed": false
        },
        {
          "address": "0x44e53dc88016af68b0803357c84e5ddc88557137",
          "topics": [
            "0x8d340f17e19058004c20453540862a9c62778504476f6756755cb33bcd6c38c2"
          ],
          "data": "0x0000000000000000000000000000000000000000000000005fbc02272fbf20b700000000000000000000000000000000000000000000000000000000000001000000000000000000000000000000000000000000000000000000000000000000000000000000000000000000000000000000000000000000000000000000000000000000000000000000000000000000000000000000000000000000000000000000000000000000000000000000000000000000000000000000000000000000000000000000000000000000000000000000000000000000000000000000000000000000000000000000000000000000000000000000000000000000000000000000000000000000000000000000000000000000000000000000000000000020000000000000000000000000564ab491cadf0bf2431373e50eec097befbbf055",
          "blockHash": "0x0908160dd27d494746523617fbc9beacc7dfb4a81c4767cd36b336d1784631fe",
          "blockNumber": "0x8bc8c0",
          "blockTimestamp": "0x68bef3a8",
          "transactionHash": "0x0c6bd4f00e34ab7b01716390ffe5f8fe08e0304442c1c17f99c197c12716d72c",
          "transactionIndex": "0x4e",
          "logIndex": "0x60",
          "removed": false
        }
      ],
      "logsBloom": "0x0000000000000040000000000000000000000000000000000000000000000000000000000000000000000000000000000000000000000000000400000000000400000000000000000000000004000000000000000000000000000000000100000000000000000000000000000000004000000000000000000000000000000040000000000000000000000000000000000100000000000000000000000000000000000000000000a000000000000000000000000000000000000000000000000000000000000000000000000000000000000000000000000000000000000000000000000000000000000000000000000000000000008000000100000000000000",
      "type": "0x2",
      "transactionHash": "0x0c6bd4f00e34ab7b01716390ffe5f8fe08e0304442c1c17f99c197c12716d72c",
      "transactionIndex": "0x4e",
      "blockHash": "0x0908160dd27d494746523617fbc9beacc7dfb4a81c4767cd36b336d1784631fe",
      "blockNumber": "0x8bc8c0",
      "gasUsed": "0x4b99c",
      "effectiveGasPrice": "0x2d4ae5",
      "from": "0xf1c71f5456aa91572034ca7c3286e90974c2c498",
      "to": "0x44e53dc88016af68b0803357c84e5ddc88557137",
      "contractAddress": null
    }
  ],
  "libraries": [],
  "pending": [],
  "returns": {},
  "timestamp": 1757344681,
  "chain": 11155111,
  "commit": null
}