{
  "transactions": [
    {
      "hash": "0x3a8d889898025f9bf747fcde445d628603ae84bf3c92bcb89e39cf25ed66fd5c",
      "transactionType": "CALL",
      "contractName": null,
      "contractAddress": "0xdb13b69cf27c40511ba79216d815a243be1493f2",
      "function": "applyChainUpdates(uint64[],(uint64,bytes[],bytes,(bool,uint128,uint128),(bool,uint128,uint128))[])",
      "arguments": [
        "[]",
        "[(6898391096552792247, [0x0000000000000000000000006bbe2df30a637b2d27c7cd78f0f16d6b4af2cf01], 0x000000000000000000000000c4734156eba32ac89790b18029ed0b285b5e91b5, (false, 0, 0), (false, 0, 0))]"
      ],
      "transaction": {
        "from": "0xf1c71f5456aa91572034ca7c3286e90974c2c498",
        "to": "0xdb13b69cf27c40511ba79216d815a243be1493f2",
        "gas": "0x686c4",
        "value": "0x0",
        "input": "0xe8a1da17000000000000000000000000000000000000000000000000000000000000004000000000000000000000000000000000000000000000000000000000000000600000000000000000000000000000000000000000000000000000000000000000000000000000000000000000000000000000000000000000000000000000000100000000000000000000000000000000000000000000000000000000000000200000000000000000000000000000000000000000000000005fbc02272fbf20b7000000000000000000000000000000000000000000000000000000000000012000000000000000000000000000000000000000000000000000000000000001a00000000000000000000000000000000000000000000000000000000000000000000000000000000000000000000000000000000000000000000000000000000000000000000000000000000000000000000000000000000000000000000000000000000000000000000000000000000000000000000000000000000000000000000000000000000000000000000000000000000000000000000000000000000000000000000000000000000000000000000000000000000000000000000000000000000000000000000000000000000000000000000000000000000000000001000000000000000000000000000000000000000000000000000000000000002000000000000000000000000000000000000000000000000000000000000000200000000000000000000000006bbe2df30a637b2d27c7cd78f0f16d6b4af2cf010000000000000000000000000000000000000000000000000000000000000020000000000000000000000000c4734156eba32ac89790b18029ed0b285b5e91b5",
        "nonce": "0xa3",
        "chainId": "0xaa36a7"
      },
      "additionalContracts": [],
      "isFixedGasLimit": false
    }
  ],
  "receipts": [
    {
      "status": "0x1",
      "cumulativeGasUsed": "0x4633bc",
      "logs": [
        {
          "address": "0xdb13b69cf27c40511ba79216d815a243be1493f2",
          "topics": [
            "0x7d628c9a1796743d365ab521a8b2a4686e419b3269919dc9145ea2ce853b54ea",
            "0x0000000000000000000000000000000000000000000000005fbc02272fbf20b7"
          ],
          "data": "0x000000000000000000000000000000000000000000000000000000000000002000000000000000000000000000000000000000000000000000000000000000200000000000000000000000006bbe2df30a637b2d27c7cd78f0f16d6b4af2cf01",
          "blockHash": "0x6fa1be7709e94e21600bf239e20a49958c3ab6cc4daa61548a78d431967e0e7b",
          "blockNumber": "0x91f4b6",
          "blockTimestamp": "0x690b2824",
          "transactionHash": "0x3a8d889898025f9bf747fcde445d628603ae84bf3c92bcb89e39cf25ed66fd5c",
          "transactionIndex": "0x29",
          "logIndex": "0x2c",
          "removed": false
        },
        {
          "address": "0xdb13b69cf27c40511ba79216d815a243be1493f2",
          "topics": [
            "0x8d340f17e19058004c20453540862a9c62778504476f6756755cb33bcd6c38c2"
          ],
          "data": "0x0000000000000000000000000000000000000000000000005fbc02272fbf20b700000000000000000000000000000000000000000000000000000000000001000000000000000000000000000000000000000000000000000000000000000000000000000000000000000000000000000000000000000000000000000000000000000000000000000000000000000000000000000000000000000000000000000000000000000000000000000000000000000000000000000000000000000000000000000000000000000000000000000000000000000000000000000000000000000000000000000000000000000000000000000000000000000000000000000000000000000000000000000000000000000000000000000000000000000020000000000000000000000000c4734156eba32ac89790b18029ed0b285b5e91b5",
          "blockHash": "0x6fa1be7709e94e21600bf239e20a49958c3ab6cc4daa61548a78d431967e0e7b",
          "blockNumber": "0x91f4b6",
          "blockTimestamp": "0x690b2824",
          "transactionHash": "0x3a8d889898025f9bf747fcde445d628603ae84bf3c92bcb89e39cf25ed66fd5c",
          "transactionIndex": "0x29",
          "logIndex": "0x2d",
          "removed": false
        }
      ],
      "logsBloom": "0x0000000000000040000000000000000000000000000000000000000000000000000000000000000000000000000000000000000000000000000400000000000400000000000000000000000004000000000000000000000000000000000100000000000000000000000000000000004000000000000000000000000000000040000000000000000000000000000000040000000000000000000000000000000000000000000000800000000000000000000000000000000000000000000000000000000000000000000000000000000000000000000000000000000000000000000000000000000000000000000000000000000000a000000100000000000000",
      "type": "0x2",
      "transactionHash": "0x3a8d889898025f9bf747fcde445d628603ae84bf3c92bcb89e39cf25ed66fd5c",
      "transactionIndex": "0x29",
      "blockHash": "0x6fa1be7709e94e21600bf239e20a49958c3ab6cc4daa61548a78d431967e0e7b",
      "blockNumber": "0x91f4b6",
      "gasUsed": "0x4b99c",
      "effectiveGasPrice": "0x1e84ab",
      "from": "0xf1c71f5456aa91572034ca7c3286e90974c2c498",
      "to": "0xdb13b69cf27c40511ba79216d815a243be1493f2",
      "contractAddress": null
    }
  ],
  "libraries": [],
  "pending": [],
  "returns": {},
  "timestamp": 1762338853,
  "chain": 11155111,
  "commit": "18ffa8d"
}