{
  "transactions": [
    {
      "hash": "0xe95a642490331a714f4e0795db845066205535f4a53bd2e7bcebc8cb5c3f9a80",
      "transactionType": "CALL",
      "contractName": null,
      "contractAddress": "0x1f91d786f4fe44e8ebdf2f59df459743e652fdeb",
      "function": "applyChainUpdates(uint64[],(uint64,bytes[],bytes,(bool,uint128,uint128),(bool,uint128,uint128))[])",
      "arguments": [
        "[]",
        "[(6898391096552792247, [0x000000000000000000000000b66802c94a8689a8da4df8285cb94d27b198b9a5], 0x00000000000000000000000095d43a736c8c9f5cb7cf9678ab6d1da216c8d536, (false, 0, 0), (false, 0, 0))]"
      ],
      "transaction": {
        "from": "0xf1c71f5456aa91572034ca7c3286e90974c2c498",
        "to": "0x1f91d786f4fe44e8ebdf2f59df459743e652fdeb",
        "gas": "0x686c4",
        "value": "0x0",
        "input": "0xe8a1da17000000000000000000000000000000000000000000000000000000000000004000000000000000000000000000000000000000000000000000000000000000600000000000000000000000000000000000000000000000000000000000000000000000000000000000000000000000000000000000000000000000000000000100000000000000000000000000000000000000000000000000000000000000200000000000000000000000000000000000000000000000005fbc02272fbf20b7000000000000000000000000000000000000000000000000000000000000012000000000000000000000000000000000000000000000000000000000000001a0000000000000000000000000000000000000000000000000000000000000000000000000000000000000000000000000000000000000000000000000000000000000000000000000000000000000000000000000000000000000000000000000000000000000000000000000000000000000000000000000000000000000000000000000000000000000000000000000000000000000000000000000000000000000000000000000000000000000000000000000000000000000000000000000000000000000000000000000000000000000000000000000000000000000000100000000000000000000000000000000000000000000000000000000000000200000000000000000000000000000000000000000000000000000000000000020000000000000000000000000b66802c94a8689a8da4df8285cb94d27b198b9a5000000000000000000000000000000000000000000000000000000000000002000000000000000000000000095d43a736c8c9f5cb7cf9678ab6d1da216c8d536",
        "nonce": "0x39",
        "chainId": "0xaa36a7"
      },
      "additionalContracts": [],
      "isFixedGasLimit": false
    }
  ],
  "receipts": [
    {
      "status": "0x1",
      "cumulativeGasUsed": "0xff8b10",
      "logs": [
        {
          "address": "0x1f91d786f4fe44e8ebdf2f59df459743e652fdeb",
          "topics": [
            "0x7d628c9a1796743d365ab521a8b2a4686e419b3269919dc9145ea2ce853b54ea",
            "0x0000000000000000000000000000000000000000000000005fbc02272fbf20b7"
          ],
          "data": "0x00000000000000000000000000000000000000000000000000000000000000200000000000000000000000000000000000000000000000000000000000000020000000000000000000000000b66802c94a8689a8da4df8285cb94d27b198b9a5",
          "blockHash": "0xea4d4af12de597f737fb1ea5e15b600d005331612dad381106cc2ccbd441d772",
          "blockNumber": "0x8bc607",
          "blockTimestamp": "0x68bed284",
          "transactionHash": "0xe95a642490331a714f4e0795db845066205535f4a53bd2e7bcebc8cb5c3f9a80",
          "transactionIndex": "0x39",
          "logIndex": "0x51",
          "removed": false
        },
        {
          "address": "0x1f91d786f4fe44e8ebdf2f59df459743e652fdeb",
          "topics": [
            "0x8d340f17e19058004c20453540862a9c62778504476f6756755cb33bcd6c38c2"
          ],
          "data": "0x0000000000000000000000000000000000000000000000005fbc02272fbf20b70000000000000000000000000000000000000000000000000000000000000100000000000000000000000000000000000000000000000000000000000000000000000000000000000000000000000000000000000000000000000000000000000000000000000000000000000000000000000000000000000000000000000000000000000000000000000000000000000000000000000000000000000000000000000000000000000000000000000000000000000000000000000000000000000000000000000000000000000000000000000000000000000000000000000000000000000000000000000000000000000000000000000000000000000000002000000000000000000000000095d43a736c8c9f5cb7cf9678ab6d1da216c8d536",
          "blockHash": "0xea4d4af12de597f737fb1ea5e15b600d005331612dad381106cc2ccbd441d772",
          "blockNumber": "0x8bc607",
          "blockTimestamp": "0x68bed284",
          "transactionHash": "0xe95a642490331a714f4e0795db845066205535f4a53bd2e7bcebc8cb5c3f9a80",
          "transactionIndex": "0x39",
          "logIndex": "0x52",
          "removed": false
        }
      ],
      "logsBloom": "0x00000000000000400000000000000400000000000000000000000000000000000000000000000000000000000000000000000000000000000004000000000004000000000000000000000000040000000000000000000000000000000000000000000000000000000000000100000040000000000000000000000000000000400000000000000000000000000000000000000000000000000000000000000000000000000000008000000000000000000000000000000000000000000000000000000000000800000000000000000000000000000000000000000000000000000000000000000000000000000000000000000000008000000100000000000000",
      "type": "0x2",
      "transactionHash": "0xe95a642490331a714f4e0795db845066205535f4a53bd2e7bcebc8cb5c3f9a80",
      "transactionIndex": "0x39",
      "blockHash": "0xea4d4af12de597f737fb1ea5e15b600d005331612dad381106cc2ccbd441d772",
      "blockNumber": "0x8bc607",
      "gasUsed": "0x4b99c",
      "effectiveGasPrice": "0x5dfa57",
      "from": "0xf1c71f5456aa91572034ca7c3286e90974c2c498",
      "to": "0x1f91d786f4fe44e8ebdf2f59df459743e652fdeb",
      "contractAddress": null
    }
  ],
  "libraries": [],
  "pending": [],
  "returns": {},
  "timestamp": 1757336198,
  "chain": 11155111,
  "commit": null
}