{
  "transactions": [
    {
      "hash": "0xaeee4da11b5a588fd7086a9025ec9e008de1c2f30a2d48a9f3dfc5000fd54582",
      "transactionType": "CALL",
      "contractName": null,
      "contractAddress": "0x779877a7b0d9e8603169ddbd7836e478b4624789",
      "function": "approve(address,uint256)",
      "arguments": [
        "0x0BF3dE8c5D3e8A2B34D2BEeB17ABfCeBaf363A59",
        "17476927579061396"
      ],
      "transaction": {
        "from": "0xf1c71f5456aa91572034ca7c3286e90974c2c498",
        "to": "0x779877a7b0d9e8603169ddbd7836e478b4624789",
        "gas": "0x1081f",
        "value": "0x0",
        "input": "0x095ea7b30000000000000000000000000bf3de8c5d3e8a2b34d2beeb17abfcebaf363a59000000000000000000000000000000000000000000000000003e172c4c1d7c94",
        "nonce": "0xc3",
        "chainId": "0xaa36a7"
      },
      "additionalContracts": [],
      "isFixedGasLimit": false
    },
    {
      "hash": "0x9ffa2da21a00a57cf60c3acc847f19c5040d191056f494f7221340e86a66f4ec",
      "transactionType": "CALL",
      "contractName": null,
      "contractAddress": "0xe796018b11ea714b6962a54ff122ce66f6af694b",
      "function": "approve(address,uint256)",
      "arguments": [
        "0x0BF3dE8c5D3e8A2B34D2BEeB17ABfCeBaf363A59",
        "100000"
      ],
      "transaction": {
        "from": "0xf1c71f5456aa91572034ca7c3286e90974c2c498",
        "to": "0xe796018b11ea714b6962a54ff122ce66f6af694b",
        "gas": "0x108da",
        "value": "0x0",
        "input": "0x095ea7b30000000000000000000000000bf3de8c5d3e8a2b34d2beeb17abfcebaf363a5900000000000000000000000000000000000000000000000000000000000186a0",
        "nonce": "0xc4",
        "chainId": "0xaa36a7"
      },
      "additionalContracts": [],
      "isFixedGasLimit": false
    },
    {
      "hash": "0xfe77886298af0eee65c01f73b0b56563b2e403e699ab8bc25867fa020fa4f060",
      "transactionType": "CALL",
      "contractName": null,
      "contractAddress": "0x0bf3de8c5d3e8a2b34d2beeb17abfcebaf363a59",
      "function": "ccipSend(uint64,(bytes,bytes,(address,uint256)[],address,bytes))",
      "arguments": [
        "6898391096552792247",
        "(0x000000000000000000000000f1c71f5456aa91572034ca7c3286e90974c2c498, 0x, [(0xe796018b11EA714b6962A54FF122ce66f6AF694b, 100000)], 0x779877A7B0D9E8603169DdbD7836e478b4624789, 0x97a657c90000000000000000000000000000000000000000000000000000000000000000)"
      ],
      "transaction": {
        "from": "0xf1c71f5456aa91572034ca7c3286e90974c2c498",
        "to": "0x0bf3de8c5d3e8a2b34d2beeb17abfcebaf363a59",
        "gas": "0x52cb0",
        "value": "0x0",
        "input": "0x96f4e9f90000000000000000000000000000000000000000000000005fbc02272fbf20b7000000000000000000000000000000000000000000000000000000000000004000000000000000000000000000000000000000000000000000000000000000a000000000000000000000000000000000000000000000000000000000000000e00000000000000000000000000000000000000000000000000000000000000100000000000000000000000000779877a7b0d9e8603169ddbd7836e478b462478900000000000000000000000000000000000000000000000000000000000001600000000000000000000000000000000000000000000000000000000000000020000000000000000000000000f1c71f5456aa91572034ca7c3286e90974c2c49800000000000000000000000000000000000000000000000000000000000000000000000000000000000000000000000000000000000000000000000000000001000000000000000000000000e796018b11ea714b6962a54ff122ce66f6af694b00000000000000000000000000000000000000000000000000000000000186a0000000000000000000000000000000000000000000000000000000000000002497a657c9000000000000000000000000000000000000000000000000000000000000000000000000000000000000000000000000000000000000000000000000",
        "nonce": "0xc5",
        "chainId": "0xaa36a7"
      },
      "additionalContracts": [],
      "isFixedGasLimit": false
    }
  ],
  "receipts": [
    {
      "status": "0x1",
      "cumulativeGasUsed": "0xec103b",
      "logs": [
        {
          "address": "0x779877a7b0d9e8603169ddbd7836e478b4624789",
          "topics": [
            "0x8c5be1e5ebec7d5bd14f71427d1e84f3dd0314c0f7b2291e5b200ac8c7c3b925",
            "0x000000000000000000000000f1c71f5456aa91572034ca7c3286e90974c2c498",
            "0x0000000000000000000000000bf3de8c5d3e8a2b34d2beeb17abfcebaf363a59"
          ],
          "data": "0x000000000000000000000000000000000000000000000000003e172c4c1d7c94",
          "blockHash": "0x7e36190f71ef0cb89cc586c5da800a24f2880d66c40fa735c80dfe521fff360c",
          "blockNumber": "0x91f808",
          "blockTimestamp": "0x690b5008",
          "transactionHash": "0xaeee4da11b5a588fd7086a9025ec9e008de1c2f30a2d48a9f3dfc5000fd54582",
          "transactionIndex": "0x8b",
          "logIndex": "0xd9",
          "removed": false
        }
      ],
      "logsBloom": "0x00000006000040000000000000000000000000000000000000000000000000000000000000000000000000000000000000000000000000000000000000200000000000000000000000000000000000000000000000000000000000000000000000000000000100000000000000000000000000000000000000000000000000000000000000000000000000000000800000000000000000000000000000000000020000000000080000000000000000000000000000000000000000000000000000000000000000000000000000000800000000000000008100000000000000000010000000000000000000000000000000000000000000000000000000000000",
      "type": "0x2",
      "transactionHash": "0xaeee4da11b5a588fd7086a9025ec9e008de1c2f30a2d48a9f3dfc5000fd54582",
      "transactionIndex": "0x8b",
      "blockHash": "0x7e36190f71ef0cb89cc586c5da800a24f2880d66c40fa735c80dfe521fff360c",
      "blockNumber": "0x91f808",
      "gasUsed": "0xb499",
      "effectiveGasPrice": "0xf4240",
      "from": "0xf1c71f5456aa91572034ca7c3286e90974c2c498",
      "to": "0x779877a7b0d9e8603169ddbd7836e478b4624789",
      "contractAddress": null
    },
    {
      "status": "0x1",
      "cumulativeGasUsed": "0xecc554",
      "logs": [
        {
          "address": "0xe796018b11ea714b6962a54ff122ce66f6af694b",
          "topics": [
            "0x8c5be1e5ebec7d5bd14f71427d1e84f3dd0314c0f7b2291e5b200ac8c7c3b925",
            "0x000000000000000000000000f1c71f5456aa91572034ca7c3286e90974c2c498",
            "0x0000000000000000000000000bf3de8c5d3e8a2b34d2beeb17abfcebaf363a59"
          ],
          "data": "0x00000000000000000000000000000000000000000000000000000000000186a0",
          "blockHash": "0x7e36190f71ef0cb89cc586c5da800a24f2880d66c40fa735c80dfe521fff360c",
          "blockNumber": "0x91f808",
          "blockTimestamp": "0x690b5008",
          "transactionHash": "0x9ffa2da21a00a57cf60c3acc847f19c5040d191056f494f7221340e86a66f4ec",
          "transactionIndex": "0x8c",
          "logIndex": "0xda",
          "removed": false
        }
      ],
      "logsBloom": "0x00000002000040000000000000000000000000000000000000000000000000000000000000000000000000000000000000000000000000000000000000200000000000000000000000000000000000000000000000000000000000000000010000000000000100000000000000000000000000000000000000000000000000000000000000008000000000000000000000000000000100000000000000000000020000000000080000000000000000000000000000000000000000000000000000000000000000000000000000000800000000000000008000000000000000000010000000000000000000000000000000000000000000000000000000000000",
      "type": "0x2",
      "transactionHash": "0x9ffa2da21a00a57cf60c3acc847f19c5040d191056f494f7221340e86a66f4ec",
      "transactionIndex": "0x8c",
      "blockHash": "0x7e36190f71ef0cb89cc586c5da800a24f2880d66c40fa735c80dfe521fff360c",
      "blockNumber": "0x91f808",
      "gasUsed": "0xb519",
      "effectiveGasPrice": "0xf4240",
      "from": "0xf1c71f5456aa91572034ca7c3286e90974c2c498",
      "to": "0xe796018b11ea714b6962a54ff122ce66f6af694b",
      "contractAddress": null
    },
    {
      "status": "0x1",
      "cumulativeGasUsed": "0xf08462",
      "logs": [
        {
          "address": "0x779877a7b0d9e8603169ddbd7836e478b4624789",
          "topics": [
            "0xddf252ad1be2c89b69c2b068fc378daa952ba7f163c4a11628f55a4df523b3ef",
            "0x000000000000000000000000f1c71f5456aa91572034ca7c3286e90974c2c498",
            "0x000000000000000000000000a2865e4f36760f5fa5c8f958336120f2df0d974b"
          ],
          "data": "0x000000000000000000000000000000000000000000000000003e172c4c1d7c94",
          "blockHash": "0x7e36190f71ef0cb89cc586c5da800a24f2880d66c40fa735c80dfe521fff360c",
          "blockNumber": "0x91f808",
          "blockTimestamp": "0x690b5008",
          "transactionHash": "0xfe77886298af0eee65c01f73b0b56563b2e403e699ab8bc25867fa020fa4f060",
          "transactionIndex": "0x8d",
          "logIndex": "0xdb",
          "removed": false
        },
        {
          "address": "0x779877a7b0d9e8603169ddbd7836e478b4624789",
          "topics": [
            "0x8c5be1e5ebec7d5bd14f71427d1e84f3dd0314c0f7b2291e5b200ac8c7c3b925",
            "0x000000000000000000000000f1c71f5456aa91572034ca7c3286e90974c2c498",
            "0x0000000000000000000000000bf3de8c5d3e8a2b34d2beeb17abfcebaf363a59"
          ],
          "data": "0x0000000000000000000000000000000000000000000000000000000000000000",
          "blockHash": "0x7e36190f71ef0cb89cc586c5da800a24f2880d66c40fa735c80dfe521fff360c",
          "blockNumber": "0x91f808",
          "blockTimestamp": "0x690b5008",
          "transactionHash": "0xfe77886298af0eee65c01f73b0b56563b2e403e699ab8bc25867fa020fa4f060",
          "transactionIndex": "0x8d",
          "logIndex": "0xdc",
          "removed": false
        },
        {
          "address": "0xe796018b11ea714b6962a54ff122ce66f6af694b",
          "topics": [
            "0xddf252ad1be2c89b69c2b068fc378daa952ba7f163c4a11628f55a4df523b3ef",
            "0x0000000000000000000000000000000000000000000000000000000000000000",
            "0x000000000000000000000000f1c71f5456aa91572034ca7c3286e90974c2c498"
          ],
          "data": "0x0000000000000000000000000000000000000000000000000000000000000000",
          "blockHash": "0x7e36190f71ef0cb89cc586c5da800a24f2880d66c40fa735c80dfe521fff360c",
          "blockNumber": "0x91f808",
          "blockTimestamp": "0x690b5008",
          "transactionHash": "0xfe77886298af0eee65c01f73b0b56563b2e403e699ab8bc25867fa020fa4f060",
          "transactionIndex": "0x8d",
          "logIndex": "0xdd",
          "removed": false
        },
        {
          "address": "0xe796018b11ea714b6962a54ff122ce66f6af694b",
          "topics": [
            "0xddf252ad1be2c89b69c2b068fc378daa952ba7f163c4a11628f55a4df523b3ef",
            "0x0000000000000000000000000000000000000000000000000000000000000000",
            "0x00000000000000000000000096349ec779ce72eeb0a686b22826ee233f51628c"
          ],
          "data": "0x0000000000000000000000000000000000000000000000000000000000000000",
          "blockHash": "0x7e36190f71ef0cb89cc586c5da800a24f2880d66c40fa735c80dfe521fff360c",
          "blockNumber": "0x91f808",
          "blockTimestamp": "0x690b5008",
          "transactionHash": "0xfe77886298af0eee65c01f73b0b56563b2e403e699ab8bc25867fa020fa4f060",
          "transactionIndex": "0x8d",
          "logIndex": "0xde",
          "removed": false
        },
        {
          "address": "0xe796018b11ea714b6962a54ff122ce66f6af694b",
          "topics": [
            "0xddf252ad1be2c89b69c2b068fc378daa952ba7f163c4a11628f55a4df523b3ef",
            "0x000000000000000000000000f1c71f5456aa91572034ca7c3286e90974c2c498",
            "0x00000000000000000000000096349ec779ce72eeb0a686b22826ee233f51628c"
          ],
          "data": "0x00000000000000000000000000000000000000000000000000000000000186a0",
          "blockHash": "0x7e36190f71ef0cb89cc586c5da800a24f2880d66c40fa735c80dfe521fff360c",
          "blockNumber": "0x91f808",
          "blockTimestamp": "0x690b5008",
          "transactionHash": "0xfe77886298af0eee65c01f73b0b56563b2e403e699ab8bc25867fa020fa4f060",
          "transactionIndex": "0x8d",
          "logIndex": "0xdf",
          "removed": false
        },
        {
          "address": "0xe796018b11ea714b6962a54ff122ce66f6af694b",
          "topics": [
            "0xddf252ad1be2c89b69c2b068fc378daa952ba7f163c4a11628f55a4df523b3ef",
            "0x0000000000000000000000000000000000000000000000000000000000000000",
            "0x00000000000000000000000096349ec779ce72eeb0a686b22826ee233f51628c"
          ],
          "data": "0x0000000000000000000000000000000000000000000000000000000000000000",
          "blockHash": "0x7e36190f71ef0cb89cc586c5da800a24f2880d66c40fa735c80dfe521fff360c",
          "blockNumber": "0x91f808",
          "blockTimestamp": "0x690b5008",
          "transactionHash": "0xfe77886298af0eee65c01f73b0b56563b2e403e699ab8bc25867fa020fa4f060",
          "transactionIndex": "0x8d",
          "logIndex": "0xe0",
          "removed": false
        },
        {
          "address": "0xe796018b11ea714b6962a54ff122ce66f6af694b",
          "topics": [
            "0xddf252ad1be2c89b69c2b068fc378daa952ba7f163c4a11628f55a4df523b3ef",
            "0x00000000000000000000000096349ec779ce72eeb0a686b22826ee233f51628c",
            "0x0000000000000000000000000000000000000000000000000000000000000000"
          ],
          "data": "0x00000000000000000000000000000000000000000000000000000000000186a0",
          "blockHash": "0x7e36190f71ef0cb89cc586c5da800a24f2880d66c40fa735c80dfe521fff360c",
          "blockNumber": "0x91f808",
          "blockTimestamp": "0x690b5008",
          "transactionHash": "0xfe77886298af0eee65c01f73b0b56563b2e403e699ab8bc25867fa020fa4f060",
          "transactionIndex": "0x8d",
          "logIndex": "0xe1",
          "removed": false
        },
        {
          "address": "0xa2865e4f36760f5fa5c8f958336120f2df0d974b",
          "topics": [
            "0xd0c3c799bf9e2639de44391e7f524d229b2b55f5b1ea94b2bf7da42f7243dddd"
          ],
          "data": "0x0000000000000000000000000000000000000000000000000000000000000020000000000000000000000000000000000000000000000000de41ba4fc9d91ad9000000000000000000000000f1c71f5456aa91572034ca7c3286e90974c2c498000000000000000000000000f1c71f5456aa91572034ca7c3286e90974c2c498000000000000000000000000000000000000000000000000000000000000030e000000000000000000000000000000000000000000000000000000000000000000000000000000000000000000000000000000000000000000000000000000000000000000000000000000000000000000000000000000000000000000000001000000000000000000000000779877a7b0d9e8603169ddbd7836e478b4624789000000000000000000000000000000000000000000000000003e172c4c1d7c9400000000000000000000000000000000000000000000000000000000000001a000000000000000000000000000000000000000000000000000000000000001c0000000000000000000000000000000000000000000000000000000000000022031141fd783c910a602f3da09b36abdd1ad400151587aaf033401bb51a4200eea00000000000000000000000000000000000000000000000000000000000000000000000000000000000000000000000000000000000000000000000000000001000000000000000000000000e796018b11ea714b6962a54ff122ce66f6af694b00000000000000000000000000000000000000000000000000000000000186a00000000000000000000000000000000000000000000000000000000000000001000000000000000000000000000000000000000000000000000000000000002000000000000000000000000000000000000000000000000000000000000001600000000000000000000000000000000000000000000000000000000000000020000000000000000000000000000000000000000000000000000000000000008000000000000000000000000000000000000000000000000000000000000000c000000000000000000000000000000000000000000000000000000000000001000000000000000000000000000000000000000000000000000000000000015f90000000000000000000000000000000000000000000000000000000000000002000000000000000000000000096349ec779ce72eeb0a686b22826ee233f51628c000000000000000000000000000000000000000000000000000000000000002000000000000000000000000055ec6287b22ff3a90a27fbc14276d85883f2816100000000000000000000000000000000000000000000000000000000000000200000000000000000000000000000000000000000000000000000000ba43b7400",
          "blockHash": "0x7e36190f71ef0cb89cc586c5da800a24f2880d66c40fa735c80dfe521fff360c",
          "blockNumber": "0x91f808",
          "blockTimestamp": "0x690b5008",
          "transactionHash": "0xfe77886298af0eee65c01f73b0b56563b2e403e699ab8bc25867fa020fa4f060",
          "transactionIndex": "0x8d",
          "logIndex": "0xe2",
          "removed": false
        }
      ],
      "logsBloom": "0x00000006000040000000000000000000000000000000000000000000000000000000000000000000000000000000000008000000000000000000000000200000000000000000000000000008000000000000000000000000000000000000010010000000020108000000000000000800000000000000100000000010000000000000000000008000000000000000800000000000000100000000000000000000020000000000080400000000000000000000000000000000000100010000000000000002000000000000200000000800000000000100008100000000000020000010800000000000000000000000000004000800000000000000000000000000",
      "type": "0x2",
      "transactionHash": "0xfe77886298af0eee65c01f73b0b56563b2e403e699ab8bc25867fa020fa4f060",
      "transactionIndex": "0x8d",
      "blockHash": "0x7e36190f71ef0cb89cc586c5da800a24f2880d66c40fa735c80dfe521fff360c",
      "blockNumber": "0x91f808",
      "gasUsed": "0x3bf0e",
      "effectiveGasPrice": "0xf4240",
      "from": "0xf1c71f5456aa91572034ca7c3286e90974c2c498",
      "to": "0x0bf3de8c5d3e8a2b34d2beeb17abfcebaf363a59",
      "contractAddress": null
    }
  ],
  "libraries": [],
  "pending": [],
  "returns": {},
  "timestamp": 1762349065,
  "chain": 11155111,
  "commit": "18ffa8d"
}