{
  "transactions": [
    {
      "hash": "0x5a1bc2bdcede6dd5ec0a382e3ce952056c5a70aa9713166ed173fc4f9c017a65",
      "transactionType": "CREATE",
      "contractName": "Vault",
      "contractAddress": "0x9e6e6e4aaa9955e15c0210122f067143e690c8d7",
      "function": null,
      "arguments": [
        "0xb411b99e100dbE90a8A8CF253221dC08b51F32f2"
      ],
      "transaction": {
        "from": "0xf1c71f5456aa91572034ca7c3286e90974c2c498",
        "gas": "0x575d7",
        "value": "0x0",
        "input": "0x60a060405234801561000f575f80fd5b5060405161049d38038061049d83398101604081905261002e9161003f565b6001600160a01b031660805261006c565b5f6020828403121561004f575f80fd5b81516001600160a01b0381168114610065575f80fd5b9392505050565b6080516103ff61009e5f395f8181604f0152818160b6015281816101590152818161020d015261029d01526103ff5ff3fe608060405260043610610036575f3560e01c806334a4edea14610041578063d0e30db01461008a578063db006a7514610094575f80fd5b3661003d57005b5f80fd5b34801561004c575f80fd5b507f00000000000000000000000000000000000000000000000000000000000000006040516001600160a01b03909116815260200160405180910390f35b6100926100b3565b005b34801561009f575f80fd5b506100926100ae36600461039b565b6101f0565b5f7f00000000000000000000000000000000000000000000000000000000000000006001600160a01b0316635257b5666040518163ffffffff1660e01b8152600401602060405180830381865afa158015610110573d5f803e3d5ffd5b505050506040513d601f19601f8201168201806040525081019061013491906103b2565b604051630ab714fb60e11b8152336004820152346024820152604481018290529091507f00000000000000000000000000000000000000000000000000000000000000006001600160a01b03169063156e29f6906064015f604051808303815f87803b1580156101a2575f80fd5b505af11580156101b4573d5f803e3d5ffd5b50506040513481523392507fe1fffcc4923d04b559f4d29a8bfc6cda04eb5b0d3c460751c2402c5c5cc9109c915060200160405180910390a250565b5f198103610281576040516370a0823160e01b81523360048201527f00000000000000000000000000000000000000000000000000000000000000006001600160a01b0316906370a0823190602401602060405180830381865afa15801561025a573d5f803e3d5ffd5b505050506040513d601f19601f8201168201806040525081019061027e91906103b2565b90505b604051632770a7eb60e21b8152336004820152602481018290527f00000000000000000000000000000000000000000000000000000000000000006001600160a01b031690639dc29fac906044015f604051808303815f87803b1580156102e6575f80fd5b505af11580156102f8573d5f803e3d5ffd5b50506040515f925033915083908381818185875af1925050503d805f811461033b576040519150601f19603f3d011682016040523d82523d5f602084013e610340565b606091505b5050905080610362576040516303eff1c560e31b815260040160405180910390fd5b60405182815233907f222838db2794d11532d940e8dec38ae307ed0b63cd97c233322e221f998767a69060200160405180910390a25050565b5f602082840312156103ab575f80fd5b5035919050565b5f602082840312156103c2575f80fd5b505191905056fea2646970667358221220dfd73c4d199b2fb20ce8a2fa81523cb1871d6b53a2d6eb9efab4776c2155a64f64736f6c63430008180033000000000000000000000000b411b99e100dbe90a8a8cf253221dc08b51f32f2",
        "nonce": "0xad",
        "chainId": "0xaa36a7"
      },
      "additionalContracts": [],
      "isFixedGasLimit": false
    },
    {
      "hash": "0x49929f41b9dc69b774b1f5263d740ee7d6ed0d201fa409b02a953f3b4003d95b",
      "transactionType": "CALL",
      "contractName": null,
      "contractAddress": "0xb411b99e100dbe90a8a8cf253221dc08b51f32f2",
      "function": "grantMintAndBurnRole(address)",
      "arguments": [
        "0x9e6e6E4aaA9955E15C0210122f067143E690c8d7"
      ],
      "transaction": {
        "from": "0xf1c71f5456aa91572034ca7c3286e90974c2c498",
        "to": "0xb411b99e100dbe90a8a8cf253221dc08b51f32f2",
        "gas": "0x1061f",
        "value": "0x0",
        "input": "0x7cfb3d710000000000000000000000009e6e6e4aaa9955e15c0210122f067143e690c8d7",
        "nonce": "0xae",
        "chainId": "0xaa36a7"
      },
      "additionalContracts": [],
      "isFixedGasLimit": false
    }
  ],
  "receipts": [
    {
      "status": "0x1",
      "cumulativeGasUsed": "0x100ec74",
      "logs": [],
      "logsBloom": "0x00000000000000000000000000000000000000000000000000000000000000000000000000000000000000000000000000000000000000000000000000000000000000000000000000000000000000000000000000000000000000000000000000000000000000000000000000000000000000000000000000000000000000000000000000000000000000000000000000000000000000000000000000000000000000000000000000000000000000000000000000000000000000000000000000000000000000000000000000000000000000000000000000000000000000000000000000000000000000000000000000000000000000000000000000000000",
      "type": "0x2",
      "transactionHash": "0x5a1bc2bdcede6dd5ec0a382e3ce952056c5a70aa9713166ed173fc4f9c017a65",
      "transactionIndex": "0x55",
      "blockHash": "0xea26dd2ae48d49ff9643b909821557087feb2b74f2b8536e85d0c2242301e799",
      "blockNumber": "0x91f6b9",
      "gasUsed": "0x43343",
      "effectiveGasPrice": "0xf423e",
      "from": "0xf1c71f5456aa91572034ca7c3286e90974c2c498",
      "to": null,
      "contractAddress": "0x9e6e6e4aaa9955e15c0210122f067143e690c8d7"
    },
    {
      "status": "0x1",
      "cumulativeGasUsed": "0x101aa3a",
      "logs": [
        {
          "address": "0xb411b99e100dbe90a8a8cf253221dc08b51f32f2",
          "topics": [
            "0x2f8788117e7eff1d82e926ec794901d17c78024a50270940304540a733656f0d",
            "0x165fe20a552ff065e5d9f40e6c0e0c4012a052c88ea89a420297bd0a7525f186",
            "0x0000000000000000000000009e6e6e4aaa9955e15c0210122f067143e690c8d7",
            "0x000000000000000000000000f1c71f5456aa91572034ca7c3286e90974c2c498"
          ],
          "data": "0x",
          "blockHash": "0xea26dd2ae48d49ff9643b909821557087feb2b74f2b8536e85d0c2242301e799",
          "blockNumber": "0x91f6b9",
          "blockTimestamp": "0x690b4054",
          "transactionHash": "0x49929f41b9dc69b774b1f5263d740ee7d6ed0d201fa409b02a953f3b4003d95b",
          "transactionIndex": "0x56",
          "logIndex": "0xa1",
          "removed": false
        }
      ],
      "logsBloom": "0x00000006200000000000000001000000000000000000000000000000000000000000000000000000001000001010000000000000000000000000000000000000000000000000000000000000000000000000000000000000000000000000400000000000000000000000000000000000000000000000000000000000020000000000000000000000000000000000000000000000000000000000000000008000000000000000000000000000000000000000000000000000001000000000000000000000080000000000000000000800000000000000008100000000000000000000000000000000000000000000000000000000000000000000000000000000",
      "type": "0x2",
      "transactionHash": "0x49929f41b9dc69b774b1f5263d740ee7d6ed0d201fa409b02a953f3b4003d95b",
      "transactionIndex": "0x56",
      "blockHash": "0xea26dd2ae48d49ff9643b909821557087feb2b74f2b8536e85d0c2242301e799",
      "blockNumber": "0x91f6b9",
      "gasUsed": "0xbdc6",
      "effectiveGasPrice": "0xf423e",
      "from": "0xf1c71f5456aa91572034ca7c3286e90974c2c498",
      "to": "0xb411b99e100dbe90a8a8cf253221dc08b51f32f2",
      "contractAddress": null
    }
  ],
  "libraries": [],
  "pending": [],
  "returns": {
    "vault": {
      "internal_type": "contract Vault",
      "value": "0x9e6e6E4aaA9955E15C0210122f067143E690c8d7"
    }
  },
  "timestamp": 1762345045,
  "chain": 11155111,
  "commit": "18ffa8d"
}