{
  "transactions": [
    {
      "hash": "0xc87f4d7824f62b3eebd9f03c3951e8d240558a9d8c8f86feb7e520707270718e",
      "transactionType": "CREATE",
      "contractName": "Vault",
      "contractAddress": "0x1d5fc19452a9d0a11d78e39dcd0a6b4ae110a3e7",
      "function": null,
      "arguments": [
        "0x0b67384a4cB6cD9A23D7Bf0A9CC52F1F65Baf344"
      ],
      "transaction": {
        "from": "0xf1c71f5456aa91572034ca7c3286e90974c2c498",
        "gas": "0x575c7",
        "value": "0x0",
        "input": "0x60a060405234801561000f575f80fd5b5060405161049d38038061049d83398101604081905261002e9161003f565b6001600160a01b031660805261006c565b5f6020828403121561004f575f80fd5b81516001600160a01b0381168114610065575f80fd5b9392505050565b6080516103ff61009e5f395f8181604f0152818160b6015281816101590152818161020d015261029d01526103ff5ff3fe608060405260043610610036575f3560e01c806334a4edea14610041578063d0e30db01461008a578063db006a7514610094575f80fd5b3661003d57005b5f80fd5b34801561004c575f80fd5b507f00000000000000000000000000000000000000000000000000000000000000006040516001600160a01b03909116815260200160405180910390f35b6100926100b3565b005b34801561009f575f80fd5b506100926100ae36600461039b565b6101f0565b5f7f00000000000000000000000000000000000000000000000000000000000000006001600160a01b0316635257b5666040518163ffffffff1660e01b8152600401602060405180830381865afa158015610110573d5f803e3d5ffd5b505050506040513d601f19601f8201168201806040525081019061013491906103b2565b604051630ab714fb60e11b8152336004820152346024820152604481018290529091507f00000000000000000000000000000000000000000000000000000000000000006001600160a01b03169063156e29f6906064015f604051808303815f87803b1580156101a2575f80fd5b505af11580156101b4573d5f803e3d5ffd5b50506040513481523392507fe1fffcc4923d04b559f4d29a8bfc6cda04eb5b0d3c460751c2402c5c5cc9109c915060200160405180910390a250565b5f198103610281576040516370a0823160e01b81523360048201527f00000000000000000000000000000000000000000000000000000000000000006001600160a01b0316906370a0823190602401602060405180830381865afa15801561025a573d5f803e3d5ffd5b505050506040513d601f19601f8201168201806040525081019061027e91906103b2565b90505b604051632770a7eb60e21b8152336004820152602481018290527f00000000000000000000000000000000000000000000000000000000000000006001600160a01b031690639dc29fac906044015f604051808303815f87803b1580156102e6575f80fd5b505af11580156102f8573d5f803e3d5ffd5b50506040515f925033915083908381818185875af1925050503d805f811461033b576040519150601f19603f3d011682016040523d82523d5f602084013e610340565b606091505b5050905080610362576040516303eff1c560e31b815260040160405180910390fd5b60405182815233907f222838db2794d11532d940e8dec38ae307ed0b63cd97c233322e221f998767a69060200160405180910390a25050565b5f602082840312156103ab575f80fd5b5035919050565b5f602082840312156103c2575f80fd5b505191905056fea2646970667358221220f6256268bfec5200895bcd881720db24b7f6ef658604b89657edb1f6188f19c564736f6c634300081800330000000000000000000000000b67384a4cb6cd9a23d7bf0a9cc52f1f65baf344",
        "nonce": "0x65",
        "chainId": "0xaa36a7"
      },
      "additionalContracts": [],
      "isFixedGasLimit": false
    },
    {
      "hash": "0x28564ec7a236c5fe88c7af84f230cac5fafa88130220d4bf3cbc5cfb0bff89d2",
      "transactionType": "CALL",
      "contractName": null,
      "contractAddress": "0x0b67384a4cb6cd9a23d7bf0a9cc52f1f65baf344",
      "function": "grantMintAndBurnRole(address)",
      "arguments": [
        "0x1D5fc19452A9d0A11D78e39DcD0A6b4aE110A3e7"
      ],
      "transaction": {
        "from": "0xf1c71f5456aa91572034ca7c3286e90974c2c498",
        "to": "0x0b67384a4cb6cd9a23d7bf0a9cc52f1f65baf344",
        "gas": "0x1061f",
        "value": "0x0",
        "input": "0x7cfb3d710000000000000000000000001d5fc19452a9d0a11d78e39dcd0a6b4ae110a3e7",
        "nonce": "0x66",
        "chainId": "0xaa36a7"
      },
      "additionalContracts": [],
      "isFixedGasLimit": false
    }
  ],
  "receipts": [
    {
      "status": "0x1",
      "cumulativeGasUsed": "0x142212f",
      "logs": [],
      "logsBloom": "0x00000000000000000000000000000000000000000000000000000000000000000000000000000000000000000000000000000000000000000000000000000000000000000000000000000000000000000000000000000000000000000000000000000000000000000000000000000000000000000000000000000000000000000000000000000000000000000000000000000000000000000000000000000000000000000000000000000000000000000000000000000000000000000000000000000000000000000000000000000000000000000000000000000000000000000000000000000000000000000000000000000000000000000000000000000000",
      "type": "0x2",
      "transactionHash": "0xc87f4d7824f62b3eebd9f03c3951e8d240558a9d8c8f86feb7e520707270718e",
      "transactionIndex": "0x82",
      "blockHash": "0x5a98c5d421ea2317df54ea047152563821bbe77eab1e8240916312fd7fed17cc",
      "blockNumber": "0x8bc8bc",
      "gasUsed": "0x43337",
      "effectiveGasPrice": "0x2c03a5",
      "from": "0xf1c71f5456aa91572034ca7c3286e90974c2c498",
      "to": null,
      "contractAddress": "0x1d5fc19452a9d0a11d78e39dcd0a6b4ae110a3e7"
    },
    {
      "status": "0x1",
      "cumulativeGasUsed": "0x142def5",
      "logs": [
        {
          "address": "0x0b67384a4cb6cd9a23d7bf0a9cc52f1f65baf344",
          "topics": [
            "0x2f8788117e7eff1d82e926ec794901d17c78024a50270940304540a733656f0d",
            "0x165fe20a552ff065e5d9f40e6c0e0c4012a052c88ea89a420297bd0a7525f186",
            "0x0000000000000000000000001d5fc19452a9d0a11d78e39dcd0a6b4ae110a3e7",
            "0x000000000000000000000000f1c71f5456aa91572034ca7c3286e90974c2c498"
          ],
          "data": "0x",
          "blockHash": "0x5a98c5d421ea2317df54ea047152563821bbe77eab1e8240916312fd7fed17cc",
          "blockNumber": "0x8bc8bc",
          "blockTimestamp": "0x68bef378",
          "transactionHash": "0x28564ec7a236c5fe88c7af84f230cac5fafa88130220d4bf3cbc5cfb0bff89d2",
          "transactionIndex": "0x83",
          "logIndex": "0xd8",
          "removed": false
        }
      ],
      "logsBloom": "0x00000006200000000000000001000000000001000000000000000000000000000000000000000000000000000000000000000000000000000000000000000000000000000000000000000000000000000000000000000000000000000000000000000000000000000000000000000000100000000000000000000000000010000000000000000000000000000000000000000000000000000000000000808000000000000000000000000000000000000000000000000000011000000000000000000000000000000000000000000800000000000000008100000000020000000000000000000000000000000000000000000000000000000000000000000000",
      "type": "0x2",
      "transactionHash": "0x28564ec7a236c5fe88c7af84f230cac5fafa88130220d4bf3cbc5cfb0bff89d2",
      "transactionIndex": "0x83",
      "blockHash": "0x5a98c5d421ea2317df54ea047152563821bbe77eab1e8240916312fd7fed17cc",
      "blockNumber": "0x8bc8bc",
      "gasUsed": "0xbdc6",
      "effectiveGasPrice": "0x2c03a5",
      "from": "0xf1c71f5456aa91572034ca7c3286e90974c2c498",
      "to": "0x0b67384a4cb6cd9a23d7bf0a9cc52f1f65baf344",
      "contractAddress": null
    }
  ],
  "libraries": [],
  "pending": [],
  "returns": {
    "vault": {
      "internal_type": "contract Vault",
      "value": "0x1D5fc19452A9d0A11D78e39DcD0A6b4aE110A3e7"
    }
  },
  "timestamp": 1757344633,
  "chain": 11155111,
  "commit": null
}