{
  "transactions": [
    {
      "hash": "0x34672786bee7dadb14cec59017424d60245db8874e7b791de32cf4a4d33545f8",
      "transactionType": "CREATE",
      "contractName": "Vault",
      "contractAddress": "0x0e69ce74df4347a8c7a3a23f6dfc4aebeff6dd92",
      "function": null,
      "arguments": [
        "0xA3F69699d7762FD6922FA0354f9404fa92074746"
      ],
      "transaction": {
        "from": "0xf1c71f5456aa91572034ca7c3286e90974c2c498",
        "gas": "0x575d7",
        "value": "0x0",
        "input": "0x60a060405234801561000f575f80fd5b5060405161049d38038061049d83398101604081905261002e9161003f565b6001600160a01b031660805261006c565b5f6020828403121561004f575f80fd5b81516001600160a01b0381168114610065575f80fd5b9392505050565b6080516103ff61009e5f395f8181604f0152818160b6015281816101590152818161020d015261029d01526103ff5ff3fe608060405260043610610036575f3560e01c806334a4edea14610041578063d0e30db01461008a578063db006a7514610094575f80fd5b3661003d57005b5f80fd5b34801561004c575f80fd5b507f00000000000000000000000000000000000000000000000000000000000000006040516001600160a01b03909116815260200160405180910390f35b6100926100b3565b005b34801561009f575f80fd5b506100926100ae36600461039b565b6101f0565b5f7f00000000000000000000000000000000000000000000000000000000000000006001600160a01b0316635257b5666040518163ffffffff1660e01b8152600401602060405180830381865afa158015610110573d5f803e3d5ffd5b505050506040513d601f19601f8201168201806040525081019061013491906103b2565b604051630ab714fb60e11b8152336004820152346024820152604481018290529091507f00000000000000000000000000000000000000000000000000000000000000006001600160a01b03169063156e29f6906064015f604051808303815f87803b1580156101a2575f80fd5b505af11580156101b4573d5f803e3d5ffd5b50506040513481523392507fe1fffcc4923d04b559f4d29a8bfc6cda04eb5b0d3c460751c2402c5c5cc9109c915060200160405180910390a250565b5f198103610281576040516370a0823160e01b81523360048201527f00000000000000000000000000000000000000000000000000000000000000006001600160a01b0316906370a0823190602401602060405180830381865afa15801561025a573d5f803e3d5ffd5b505050506040513d601f19601f8201168201806040525081019061027e91906103b2565b90505b604051632770a7eb60e21b8152336004820152602481018290527f00000000000000000000000000000000000000000000000000000000000000006001600160a01b031690639dc29fac906044015f604051808303815f87803b1580156102e6575f80fd5b505af11580156102f8573d5f803e3d5ffd5b50506040515f925033915083908381818185875af1925050503d805f811461033b576040519150601f19603f3d011682016040523d82523d5f602084013e610340565b606091505b5050905080610362576040516303eff1c560e31b815260040160405180910390fd5b60405182815233907f222838db2794d11532d940e8dec38ae307ed0b63cd97c233322e221f998767a69060200160405180910390a25050565b5f602082840312156103ab575f80fd5b5035919050565b5f602082840312156103c2575f80fd5b505191905056fea2646970667358221220dfd73c4d199b2fb20ce8a2fa81523cb1871d6b53a2d6eb9efab4776c2155a64f64736f6c63430008180033000000000000000000000000a3f69699d7762fd6922fa0354f9404fa92074746",
        "nonce": "0xb5",
        "chainId": "0xaa36a7"
      },
      "additionalContracts": [],
      "isFixedGasLimit": false
    },
    {
      "hash": "0x0aaa3438b42e5b58f97ca0363b896004edbacbeba21b86041cc10f57b519544a",
      "transactionType": "CALL",
      "contractName": null,
      "contractAddress": "0xa3f69699d7762fd6922fa0354f9404fa92074746",
      "function": "grantMintAndBurnRole(address)",
      "arguments": [
        "0x0e69CE74DF4347A8c7a3a23f6dfC4aeBEff6dd92"
      ],
      "transaction": {
        "from": "0xf1c71f5456aa91572034ca7c3286e90974c2c498",
        "to": "0xa3f69699d7762fd6922fa0354f9404fa92074746",
        "gas": "0x1061f",
        "value": "0x0",
        "input": "0x7cfb3d710000000000000000000000000e69ce74df4347a8c7a3a23f6dfc4aebeff6dd92",
        "nonce": "0xb6",
        "chainId": "0xaa36a7"
      },
      "additionalContracts": [],
      "isFixedGasLimit": false
    }
  ],
  "receipts": [
    {
      "status": "0x1",
      "cumulativeGasUsed": "0x761957",
      "logs": [],
      "logsBloom": "0x00000000000000000000000000000000000000000000000000000000000000000000000000000000000000000000000000000000000000000000000000000000000000000000000000000000000000000000000000000000000000000000000000000000000000000000000000000000000000000000000000000000000000000000000000000000000000000000000000000000000000000000000000000000000000000000000000000000000000000000000000000000000000000000000000000000000000000000000000000000000000000000000000000000000000000000000000000000000000000000000000000000000000000000000000000000",
      "type": "0x2",
      "transactionHash": "0x34672786bee7dadb14cec59017424d60245db8874e7b791de32cf4a4d33545f8",
      "transactionIndex": "0x4c",
      "blockHash": "0x4daeaf164affbd0ed8ec5041298332a872c05cd41526770fee71c7b75da0c382",
      "blockNumber": "0x91f768",
      "gasUsed": "0x43343",
      "effectiveGasPrice": "0xf4244",
      "from": "0xf1c71f5456aa91572034ca7c3286e90974c2c498",
      "to": null,
      "contractAddress": "0x0e69ce74df4347a8c7a3a23f6dfc4aebeff6dd92"
    },
    {
      "status": "0x1",
      "cumulativeGasUsed": "0x77e319",
      "logs": [
        {
          "address": "0xa3f69699d7762fd6922fa0354f9404fa92074746",
          "topics": [
            "0x2f8788117e7eff1d82e926ec794901d17c78024a50270940304540a733656f0d",
            "0x165fe20a552ff065e5d9f40e6c0e0c4012a052c88ea89a420297bd0a7525f186",
            "0x0000000000000000000000000e69ce74df4347a8c7a3a23f6dfc4aebeff6dd92",
            "0x000000000000000000000000f1c71f5456aa91572034ca7c3286e90974c2c498"
          ],
          "data": "0x",
          "blockHash": "0x4daeaf164affbd0ed8ec5041298332a872c05cd41526770fee71c7b75da0c382",
          "blockNumber": "0x91f768",
          "blockTimestamp": "0x690b4888",
          "transactionHash": "0x0aaa3438b42e5b58f97ca0363b896004edbacbeba21b86041cc10f57b519544a",
          "transactionIndex": "0x4e",
          "logIndex": "0x6f",
          "removed": false
        }
      ],
      "logsBloom": "0x00000006200000000000000001000000000200000000000000000000000240000000000000000000000000000000000000000000000000000000000000000000000400000000000000000000000000000000000000000000000000000000000000000000000000000000000000000000000000000000000000000000000000100000000000000000000000000000000000000000000000000000000000008000000000000000000000000000000000000000000000000000001000000000000000000000000000000000000000000800000000000000008100000000010000000000000000000000000000000000000000000000000000000000000000000000",
      "type": "0x2",
      "transactionHash": "0x0aaa3438b42e5b58f97ca0363b896004edbacbeba21b86041cc10f57b519544a",
      "transactionIndex": "0x4e",
      "blockHash": "0x4daeaf164affbd0ed8ec5041298332a872c05cd41526770fee71c7b75da0c382",
      "blockNumber": "0x91f768",
      "gasUsed": "0xbdc6",
      "effectiveGasPrice": "0xf4244",
      "from": "0xf1c71f5456aa91572034ca7c3286e90974c2c498",
      "to": "0xa3f69699d7762fd6922fa0354f9404fa92074746",
      "contractAddress": null
    }
  ],
  "libraries": [],
  "pending": [],
  "returns": {
    "vault": {
      "internal_type": "contract Vault",
      "value": "0x0e69CE74DF4347A8c7a3a23f6dfC4aeBEff6dd92"
    }
  },
  "timestamp": 1762347145,
  "chain": 11155111,
  "commit": "18ffa8d"
}