{
  "transactions": [
    {
      "hash": "0xa3a6b9a16ba7da516cc1c10d19b95c5ea5e8467368002bc7d22bfe6fc2cbd510",
      "transactionType": "CREATE",
      "contractName": "Vault",
      "contractAddress": "0x125f781fc891e880cae7afd4ae7f755fe4336d4d",
      "function": null,
      "arguments": [
        "0x93306647B48CA3d65A5BF46b9e326603613E36A4"
      ],
      "transaction": {
        "from": "0xf1c71f5456aa91572034ca7c3286e90974c2c498",
        "gas": "0x575d7",
        "value": "0x0",
        "input": "0x60a060405234801561000f575f80fd5b5060405161049d38038061049d83398101604081905261002e9161003f565b6001600160a01b031660805261006c565b5f6020828403121561004f575f80fd5b81516001600160a01b0381168114610065575f80fd5b9392505050565b6080516103ff61009e5f395f8181604f0152818160b6015281816101590152818161020d015261029d01526103ff5ff3fe608060405260043610610036575f3560e01c806334a4edea14610041578063d0e30db01461008a578063db006a7514610094575f80fd5b3661003d57005b5f80fd5b34801561004c575f80fd5b507f00000000000000000000000000000000000000000000000000000000000000006040516001600160a01b03909116815260200160405180910390f35b6100926100b3565b005b34801561009f575f80fd5b506100926100ae36600461039b565b6101f0565b5f7f00000000000000000000000000000000000000000000000000000000000000006001600160a01b0316635257b5666040518163ffffffff1660e01b8152600401602060405180830381865afa158015610110573d5f803e3d5ffd5b505050506040513d601f19601f8201168201806040525081019061013491906103b2565b604051630ab714fb60e11b8152336004820152346024820152604481018290529091507f00000000000000000000000000000000000000000000000000000000000000006001600160a01b03169063156e29f6906064015f604051808303815f87803b1580156101a2575f80fd5b505af11580156101b4573d5f803e3d5ffd5b50506040513481523392507fe1fffcc4923d04b559f4d29a8bfc6cda04eb5b0d3c460751c2402c5c5cc9109c915060200160405180910390a250565b5f198103610281576040516370a0823160e01b81523360048201527f00000000000000000000000000000000000000000000000000000000000000006001600160a01b0316906370a0823190602401602060405180830381865afa15801561025a573d5f803e3d5ffd5b505050506040513d601f19601f8201168201806040525081019061027e91906103b2565b90505b604051632770a7eb60e21b8152336004820152602481018290527f00000000000000000000000000000000000000000000000000000000000000006001600160a01b031690639dc29fac906044015f604051808303815f87803b1580156102e6575f80fd5b505af11580156102f8573d5f803e3d5ffd5b50506040515f925033915083908381818185875af1925050503d805f811461033b576040519150601f19603f3d011682016040523d82523d5f602084013e610340565b606091505b5050905080610362576040516303eff1c560e31b815260040160405180910390fd5b60405182815233907f222838db2794d11532d940e8dec38ae307ed0b63cd97c233322e221f998767a69060200160405180910390a25050565b5f602082840312156103ab575f80fd5b5035919050565b5f602082840312156103c2575f80fd5b505191905056fea26469706673582212204067996b1b66aaa55ae15af96f3252a3b96cf3b6cbc69ade1b1550b2be380f4564736f6c6343000818003300000000000000000000000093306647b48ca3d65a5bf46b9e326603613e36a4",
        "nonce": "0x37",
        "chainId": "0xaa36a7"
      },
      "additionalContracts": [],
      "isFixedGasLimit": false
    },
    {
      "hash": "0x72905dece7cbc80254456c0f51bf3ba6abfa7dba51f2376f288f90f1dc85f69e",
      "transactionType": "CALL",
      "contractName": null,
      "contractAddress": "0x93306647b48ca3d65a5bf46b9e326603613e36a4",
      "function": "grantMintAndBurnRole(address)",
      "arguments": [
        "0x125F781Fc891E880cAe7afD4ae7F755fE4336d4D"
      ],
      "transaction": {
        "from": "0xf1c71f5456aa91572034ca7c3286e90974c2c498",
        "to": "0x93306647b48ca3d65a5bf46b9e326603613e36a4",
        "gas": "0x1061f",
        "value": "0x0",
        "input": "0x7cfb3d71000000000000000000000000125f781fc891e880cae7afd4ae7f755fe4336d4d",
        "nonce": "0x38",
        "chainId": "0xaa36a7"
      },
      "additionalContracts": [],
      "isFixedGasLimit": false
    }
  ],
  "receipts": [
    {
      "status": "0x1",
      "cumulativeGasUsed": "0x1c8ebb7",
      "logs": [],
      "logsBloom": "0x00000000000000000000000000000000000000000000000000000000000000000000000000000000000000000000000000000000000000000000000000000000000000000000000000000000000000000000000000000000000000000000000000000000000000000000000000000000000000000000000000000000000000000000000000000000000000000000000000000000000000000000000000000000000000000000000000000000000000000000000000000000000000000000000000000000000000000000000000000000000000000000000000000000000000000000000000000000000000000000000000000000000000000000000000000000",
      "type": "0x2",
      "transactionHash": "0xa3a6b9a16ba7da516cc1c10d19b95c5ea5e8467368002bc7d22bfe6fc2cbd510",
      "transactionIndex": "0xca",
      "blockHash": "0xd2deb78793f5f5e217e4163342e693ea8f68411b2da714f3463d12e449db87a6",
      "blockNumber": "0x8bc5f6",
      "gasUsed": "0x43343",
      "effectiveGasPrice": "0xa0447e",
      "from": "0xf1c71f5456aa91572034ca7c3286e90974c2c498",
      "to": null,
      "contractAddress": "0x125f781fc891e880cae7afd4ae7f755fe4336d4d"
    },
    {
      "status": "0x1",
      "cumulativeGasUsed": "0x1d224c5",
      "logs": [
        {
          "address": "0x93306647b48ca3d65a5bf46b9e326603613e36a4",
          "topics": [
            "0x2f8788117e7eff1d82e926ec794901d17c78024a50270940304540a733656f0d",
            "0x165fe20a552ff065e5d9f40e6c0e0c4012a052c88ea89a420297bd0a7525f186",
            "0x000000000000000000000000125f781fc891e880cae7afd4ae7f755fe4336d4d",
            "0x000000000000000000000000f1c71f5456aa91572034ca7c3286e90974c2c498"
          ],
          "data": "0x",
          "blockHash": "0xd2deb78793f5f5e217e4163342e693ea8f68411b2da714f3463d12e449db87a6",
          "blockNumber": "0x8bc5f6",
          "blockTimestamp": "0x68bed1b8",
          "transactionHash": "0x72905dece7cbc80254456c0f51bf3ba6abfa7dba51f2376f288f90f1dc85f69e",
          "transactionIndex": "0xce",
          "logIndex": "0x9a",
          "removed": false
        }
      ],
      "logsBloom": "0x00000006200000000000000001000000000000000000010000000000000000010000000000000000000000000000000000000002000000000000000000000000000000000000000000000000000000000000000000000000000000000000000000000000000000000000000000000000000000000000000000000000000000000000000004000000000000000000000000000000000000000000000000008000000000000000000000000000000000000000000000000000001000000000000000000000000000000000000000000800000000000008008100000000000000000000000000000000000000000000100000000000000000000000000000000000",
      "type": "0x2",
      "transactionHash": "0x72905dece7cbc80254456c0f51bf3ba6abfa7dba51f2376f288f90f1dc85f69e",
      "transactionIndex": "0xce",
      "blockHash": "0xd2deb78793f5f5e217e4163342e693ea8f68411b2da714f3463d12e449db87a6",
      "blockNumber": "0x8bc5f6",
      "gasUsed": "0xbdc6",
      "effectiveGasPrice": "0xa0447e",
      "from": "0xf1c71f5456aa91572034ca7c3286e90974c2c498",
      "to": "0x93306647b48ca3d65a5bf46b9e326603613e36a4",
      "contractAddress": null
    }
  ],
  "libraries": [],
  "pending": [],
  "returns": {
    "vault": {
      "internal_type": "contract Vault",
      "value": "0x125F781Fc891E880cAe7afD4ae7F755fE4336d4D"
    }
  },
  "timestamp": 1757335994,
  "chain": 11155111,
  "commit": null
}